{
  "contractName": "LiquidDemocracy",
  "abi": [
    {
      "constant": true,
      "inputs": [
        {
          "name": "",
          "type": "address"
        }
      ],
      "name": "votersData",
      "outputs": [
        {
          "name": "weight",
          "type": "uint256"
        },
        {
          "name": "voted",
          "type": "bool"
        },
        {
          "name": "registered",
          "type": "bool"
        },
        {
          "name": "ipfsHash",
          "type": "bytes32"
        }
      ],
      "payable": false,
      "stateMutability": "view",
      "type": "function"
    },
    {
      "constant": true,
      "inputs": [
        {
          "name": "",
          "type": "uint256"
        }
      ],
      "name": "voters",
      "outputs": [
        {
          "name": "",
          "type": "address"
        }
      ],
      "payable": false,
      "stateMutability": "view",
      "type": "function"
    },
    {
      "constant": true,
      "inputs": [],
      "name": "getVoters",
      "outputs": [
        {
          "name": "",
          "type": "address[]"
        }
      ],
      "payable": false,
      "stateMutability": "view",
      "type": "function"
    },
    {
      "constant": true,
      "inputs": [],
      "name": "getVotersCount",
      "outputs": [
        {
          "name": "",
          "type": "uint256"
        }
      ],
      "payable": false,
      "stateMutability": "view",
      "type": "function"
    },
    {
      "constant": true,
      "inputs": [],
      "name": "getBallotCount",
      "outputs": [
        {
          "name": "",
          "type": "uint256"
        }
      ],
      "payable": false,
      "stateMutability": "view",
      "type": "function"
    },
    {
      "constant": true,
      "inputs": [
        {
          "name": "voter",
          "type": "address"
        }
      ],
      "name": "getVoterData",
      "outputs": [
        {
          "name": "",
          "type": "uint256"
        },
        {
          "name": "",
          "type": "bool"
        },
        {
          "name": "",
          "type": "bool"
        },
        {
          "name": "",
          "type": "bytes32"
        }
      ],
      "payable": false,
      "stateMutability": "view",
      "type": "function"
    },
    {
      "constant": true,
      "inputs": [
        {
          "name": "ballotId",
          "type": "uint256"
        }
      ],
      "name": "getBallotVoteOption1Count",
      "outputs": [
        {
          "name": "votes",
          "type": "uint256"
        }
      ],
      "payable": false,
      "stateMutability": "view",
      "type": "function"
    },
    {
      "constant": true,
      "inputs": [
        {
          "name": "ballotId",
          "type": "uint256"
        }
      ],
      "name": "getBallotVoteOption2Count",
      "outputs": [
        {
          "name": "votes",
          "type": "uint256"
        }
      ],
      "payable": false,
      "stateMutability": "view",
      "type": "function"
    },
    {
      "constant": true,
      "inputs": [
        {
          "name": "ballotId",
          "type": "uint256"
        }
      ],
      "name": "getBallotTitle",
      "outputs": [
        {
          "name": "ipfsTitle",
          "type": "bytes32"
        }
      ],
      "payable": false,
      "stateMutability": "view",
      "type": "function"
    },
    {
      "constant": true,
      "inputs": [],
      "name": "getMyWeight",
      "outputs": [
        {
          "name": "",
          "type": "uint256"
        }
      ],
      "payable": false,
      "stateMutability": "view",
      "type": "function"
    },
    {
      "constant": true,
      "inputs": [],
      "name": "getMyRepresentative",
      "outputs": [
        {
          "name": "",
          "type": "address"
        }
      ],
      "payable": false,
      "stateMutability": "view",
      "type": "function"
    },
    {
      "constant": true,
      "inputs": [],
      "name": "getLastBallot",
      "outputs": [
        {
          "name": "",
          "type": "bytes32"
        },
        {
          "name": "",
          "type": "address"
        }
      ],
      "payable": false,
      "stateMutability": "view",
      "type": "function"
    },
    {
      "constant": false,
      "inputs": [
        {
          "name": "ipfsHash",
          "type": "bytes32"
        }
      ],
      "name": "registerNewVoter",
      "outputs": [],
      "payable": false,
      "stateMutability": "nonpayable",
      "type": "function"
    },
    {
      "constant": false,
      "inputs": [],
      "name": "resetVoter",
      "outputs": [],
      "payable": false,
      "stateMutability": "nonpayable",
      "type": "function"
    },
    {
      "constant": false,
      "inputs": [
        {
          "name": "ipfsTitle",
          "type": "bytes32"
        }
      ],
      "name": "createNewBallot",
      "outputs": [],
      "payable": false,
      "stateMutability": "nonpayable",
      "type": "function"
    },
    {
      "constant": false,
      "inputs": [
        {
          "name": "representative",
          "type": "address"
        }
      ],
      "name": "delegate",
      "outputs": [],
      "payable": false,
      "stateMutability": "nonpayable",
      "type": "function"
    },
    {
      "constant": false,
      "inputs": [],
      "name": "revoke",
      "outputs": [],
      "payable": false,
      "stateMutability": "nonpayable",
      "type": "function"
    },
    {
      "constant": false,
      "inputs": [
        {
          "name": "ballotId",
          "type": "uint256"
        },
        {
          "name": "voteOption",
          "type": "uint256"
        }
      ],
      "name": "vote",
      "outputs": [],
      "payable": false,
      "stateMutability": "nonpayable",
      "type": "function"
    }
  ],
  "bytecode": "0x608060405234801561001057600080fd5b506119a2806100206000396000f3006080604052600436106100fc576000357c0100000000000000000000000000000000000000000000000000000000900463ffffffff168063077e43b4146101015780632ceaa7171461016757806331b6e2fb146101a857806347a2834e146101d3578063516b8cad146102145780635c19a95c1461024557806363d82f771461028857806381657e90146103045780638fb4cd8014610335578063b384abef146103b1578063b4741495146103e8578063b6549f7514610413578063c0f2a7771461042a578063cdd7225314610455578063da58c7d9146104c1578063e7b7a95f1461052e578063ef53a93314610585578063f3150a321461059c575b600080fd5b34801561010d57600080fd5b506101166105e5565b6040518083600019166000191681526020018273ffffffffffffffffffffffffffffffffffffffff1673ffffffffffffffffffffffffffffffffffffffff1681526020019250505060405180910390f35b34801561017357600080fd5b5061019260048036038101908080359060200190929190505050610664565b6040518082815260200191505060405180910390f35b3480156101b457600080fd5b506101bd610693565b6040518082815260200191505060405180910390f35b3480156101df57600080fd5b506101fe60048036038101908080359060200190929190505050610738565b6040518082815260200191505060405180910390f35b34801561022057600080fd5b506102436004803603810190808035600019169060200190929190505050610767565b005b34801561025157600080fd5b50610286600480360381019080803573ffffffffffffffffffffffffffffffffffffffff169060200190929190505050610774565b005b34801561029457600080fd5b506102c9600480360381019080803573ffffffffffffffffffffffffffffffffffffffff169060200190929190505050610781565b604051808581526020018415151515815260200183151515158152602001826000191660001916815260200194505050505060405180910390f35b34801561031057600080fd5b5061033360048036038101908080356000191690602001909291905050506107cb565b005b34801561034157600080fd5b50610376600480360381019080803573ffffffffffffffffffffffffffffffffffffffff1690602001909291905050506107d8565b604051808581526020018415151515815260200183151515158152602001826000191660001916815260200194505050505060405180910390f35b3480156103bd57600080fd5b506103e66004803603810190808035906020019092919080359060200190929190505050610913565b005b3480156103f457600080fd5b506103fd610922565b6040518082815260200191505060405180910390f35b34801561041f57600080fd5b5061042861092f565b005b34801561043657600080fd5b5061043f61093a565b6040518082815260200191505060405180910390f35b34801561046157600080fd5b5061046a610946565b6040518080602001828103825283818151815260200191508051906020019060200280838360005b838110156104ad578082015181840152602081019050610492565b505050509050019250505060405180910390f35b3480156104cd57600080fd5b506104ec600480360381019080803590602001909291905050506109d4565b604051808273ffffffffffffffffffffffffffffffffffffffff1673ffffffffffffffffffffffffffffffffffffffff16815260200191505060405180910390f35b34801561053a57600080fd5b50610543610a12565b604051808273ffffffffffffffffffffffffffffffffffffffff1673ffffffffffffffffffffffffffffffffffffffff16815260200191505060405180910390f35b34801561059157600080fd5b5061059a610ad4565b005b3480156105a857600080fd5b506105c760048036038101908080359060200190929190505050610adf565b60405180826000191660001916815260200191505060405180910390f35b60008060018001600180600001540381548110151561060057fe5b90600052602060002090600502016002015460018001600180600001540381548110151561062a57fe5b906000526020600020906005020160000160009054906101000a900473ffffffffffffffffffffffffffffffffffffffff16915091509091565b6000600180018281548110151561067757fe5b9060005260206000209060050201600401600001549050919050565b6000600460003373ffffffffffffffffffffffffffffffffffffffff1673ffffffffffffffffffffffffffffffffffffffff16815260200190815260200160002060010160019054906101000a900460ff1615156106f057600080fd5b600460003373ffffffffffffffffffffffffffffffffffffffff1673ffffffffffffffffffffffffffffffffffffffff16815260200190815260200160002060000154905090565b6000600180018281548110151561074b57fe5b9060005260206000209060050201600301600001549050919050565b6107713382610b0b565b50565b61077e3382610d3d565b50565b60046020528060005260406000206000915090508060000154908060010160009054906101000a900460ff16908060010160019054906101000a900460ff16908060020154905084565b6107d53382611139565b50565b600080600080600460008673ffffffffffffffffffffffffffffffffffffffff1673ffffffffffffffffffffffffffffffffffffffff16815260200190815260200160002060000154600460008773ffffffffffffffffffffffffffffffffffffffff1673ffffffffffffffffffffffffffffffffffffffff16815260200190815260200160002060010160019054906101000a900460ff16600460008873ffffffffffffffffffffffffffffffffffffffff1673ffffffffffffffffffffffffffffffffffffffff16815260200190815260200160002060010160009054906101000a900460ff16600460008973ffffffffffffffffffffffffffffffffffffffff1673ffffffffffffffffffffffffffffffffffffffff1681526020019081526020016000206002015493509350935093509193509193565b61091e338383611280565b5050565b6000600160000154905090565b61093833611454565b565b60008080549050905090565b606060008054806020026020016040519081016040528092919081815260200182805480156109ca57602002820191906000526020600020905b8160009054906101000a900473ffffffffffffffffffffffffffffffffffffffff1673ffffffffffffffffffffffffffffffffffffffff1681526020019060010190808311610980575b5050505050905090565b6000818154811015156109e357fe5b906000526020600020016000915054906101000a900473ffffffffffffffffffffffffffffffffffffffff1681565b6000600460003373ffffffffffffffffffffffffffffffffffffffff1673ffffffffffffffffffffffffffffffffffffffff16815260200190815260200160002060010160019054906101000a900460ff161515610a6f57600080fd5b600360003373ffffffffffffffffffffffffffffffffffffffff1673ffffffffffffffffffffffffffffffffffffffff16815260200190815260200160002060009054906101000a900473ffffffffffffffffffffffffffffffffffffffff16905090565b610add33611854565b565b60006001800182815481101515610af257fe5b9060005260206000209060050201600201549050919050565b600460008373ffffffffffffffffffffffffffffffffffffffff1673ffffffffffffffffffffffffffffffffffffffff16815260200190815260200160002060010160019054906101000a900460ff16151515610b6757600080fd5b80600460008473ffffffffffffffffffffffffffffffffffffffff1673ffffffffffffffffffffffffffffffffffffffff16815260200190815260200160002060020181600019169055506001600460008473ffffffffffffffffffffffffffffffffffffffff1673ffffffffffffffffffffffffffffffffffffffff168152602001908152602001600020600001819055506001600460008473ffffffffffffffffffffffffffffffffffffffff1673ffffffffffffffffffffffffffffffffffffffff16815260200190815260200160002060010160016101000a81548160ff02191690831515021790555081600360008473ffffffffffffffffffffffffffffffffffffffff1673ffffffffffffffffffffffffffffffffffffffff16815260200190815260200160002060006101000a81548173ffffffffffffffffffffffffffffffffffffffff021916908373ffffffffffffffffffffffffffffffffffffffff16021790555060008290806001815401808255809150509060018203906000526020600020016000909192909190916101000a81548173ffffffffffffffffffffffffffffffffffffffff021916908373ffffffffffffffffffffffffffffffffffffffff160217905550505050565b6000808391508173ffffffffffffffffffffffffffffffffffffffff16600360008473ffffffffffffffffffffffffffffffffffffffff1673ffffffffffffffffffffffffffffffffffffffff16815260200190815260200160002060009054906101000a900473ffffffffffffffffffffffffffffffffffffffff1673ffffffffffffffffffffffffffffffffffffffff16141515610ddc57600080fd5b600460008373ffffffffffffffffffffffffffffffffffffffff1673ffffffffffffffffffffffffffffffffffffffff16815260200190815260200160002060010160019054906101000a900460ff161515610e3757600080fd5b600460008473ffffffffffffffffffffffffffffffffffffffff1673ffffffffffffffffffffffffffffffffffffffff16815260200190815260200160002060010160019054906101000a900460ff161515610e9257600080fd5b82600360008473ffffffffffffffffffffffffffffffffffffffff1673ffffffffffffffffffffffffffffffffffffffff16815260200190815260200160002060006101000a81548173ffffffffffffffffffffffffffffffffffffffff021916908373ffffffffffffffffffffffffffffffffffffffff1602179055508290505b8073ffffffffffffffffffffffffffffffffffffffff16600360008373ffffffffffffffffffffffffffffffffffffffff1673ffffffffffffffffffffffffffffffffffffffff16815260200190815260200160002060009054906101000a900473ffffffffffffffffffffffffffffffffffffffff1673ffffffffffffffffffffffffffffffffffffffff161415156110a157600460008373ffffffffffffffffffffffffffffffffffffffff1673ffffffffffffffffffffffffffffffffffffffff16815260200190815260200160002060000154600460008373ffffffffffffffffffffffffffffffffffffffff1673ffffffffffffffffffffffffffffffffffffffff16815260200190815260200160002060000160008282540192505081905550600360008273ffffffffffffffffffffffffffffffffffffffff1673ffffffffffffffffffffffffffffffffffffffff16815260200190815260200160002060009054906101000a900473ffffffffffffffffffffffffffffffffffffffff169050610f14565b600460008373ffffffffffffffffffffffffffffffffffffffff1673ffffffffffffffffffffffffffffffffffffffff16815260200190815260200160002060000154600460008373ffffffffffffffffffffffffffffffffffffffff1673ffffffffffffffffffffffffffffffffffffffff1681526020019081526020016000206000016000828254019250508190555050505050565b61114161190d565b60a0604051908101604052808473ffffffffffffffffffffffffffffffffffffffff168152602001600160000154815260200183600019168152602001602060405190810160405280600081525081526020016020604051908101604052806000815250815250905060018001819080600181540180825580915050906001820390600052602060002090600502016000909192909190915060008201518160000160006101000a81548173ffffffffffffffffffffffffffffffffffffffff021916908373ffffffffffffffffffffffffffffffffffffffff160217905550602082015181600101556040820151816002019060001916905560608201518160030160008201518160000155505060808201518160040160008201518160000155505050505060018060000160008282540192505081905550505050565b6000600460008573ffffffffffffffffffffffffffffffffffffffff1673ffffffffffffffffffffffffffffffffffffffff16815260200190815260200160002060010160019054906101000a900460ff1615156112dd57600080fd5b600460008573ffffffffffffffffffffffffffffffffffffffff1673ffffffffffffffffffffffffffffffffffffffff16815260200190815260200160002060010160009054906101000a900460ff1615151561133957600080fd5b6001600460008673ffffffffffffffffffffffffffffffffffffffff1673ffffffffffffffffffffffffffffffffffffffff16815260200190815260200160002060010160006101000a81548160ff021916908315150217905550600460008573ffffffffffffffffffffffffffffffffffffffff1673ffffffffffffffffffffffffffffffffffffffff168152602001908152602001600020600001549050600182141561141a578060018001848154811015156113f457fe5b90600052602060002090600502016003016000016000828254019250508190555061144e565b80600180018481548110151561142c57fe5b9060005260206000209060050201600401600001600082825401925050819055505b50505050565b600080829150600460008373ffffffffffffffffffffffffffffffffffffffff1673ffffffffffffffffffffffffffffffffffffffff16815260200190815260200160002060010160019054906101000a900460ff1615156114b557600080fd5b8173ffffffffffffffffffffffffffffffffffffffff16600360008473ffffffffffffffffffffffffffffffffffffffff1673ffffffffffffffffffffffffffffffffffffffff16815260200190815260200160002060009054906101000a900473ffffffffffffffffffffffffffffffffffffffff1673ffffffffffffffffffffffffffffffffffffffff161415151561154f57600080fd5b600360008373ffffffffffffffffffffffffffffffffffffffff1673ffffffffffffffffffffffffffffffffffffffff16815260200190815260200160002060009054906101000a900473ffffffffffffffffffffffffffffffffffffffff1690505b8073ffffffffffffffffffffffffffffffffffffffff16600360008373ffffffffffffffffffffffffffffffffffffffff1673ffffffffffffffffffffffffffffffffffffffff16815260200190815260200160002060009054906101000a900473ffffffffffffffffffffffffffffffffffffffff1673ffffffffffffffffffffffffffffffffffffffff1614151561173f57600460008373ffffffffffffffffffffffffffffffffffffffff1673ffffffffffffffffffffffffffffffffffffffff16815260200190815260200160002060000154600460008373ffffffffffffffffffffffffffffffffffffffff1673ffffffffffffffffffffffffffffffffffffffff16815260200190815260200160002060000160008282540392505081905550600360008273ffffffffffffffffffffffffffffffffffffffff1673ffffffffffffffffffffffffffffffffffffffff16815260200190815260200160002060009054906101000a900473ffffffffffffffffffffffffffffffffffffffff1690506115b2565b600460008373ffffffffffffffffffffffffffffffffffffffff1673ffffffffffffffffffffffffffffffffffffffff16815260200190815260200160002060000154600460008373ffffffffffffffffffffffffffffffffffffffff1673ffffffffffffffffffffffffffffffffffffffff1681526020019081526020016000206000016000828254039250508190555081600360008473ffffffffffffffffffffffffffffffffffffffff1673ffffffffffffffffffffffffffffffffffffffff16815260200190815260200160002060006101000a81548173ffffffffffffffffffffffffffffffffffffffff021916908373ffffffffffffffffffffffffffffffffffffffff160217905550505050565b600460008273ffffffffffffffffffffffffffffffffffffffff1673ffffffffffffffffffffffffffffffffffffffff16815260200190815260200160002060010160019054906101000a900460ff1615156118af57600080fd5b6000600460008373ffffffffffffffffffffffffffffffffffffffff1673ffffffffffffffffffffffffffffffffffffffff16815260200190815260200160002060010160016101000a81548160ff02191690831515021790555050565b60a060405190810160405280600073ffffffffffffffffffffffffffffffffffffffff168152602001600081526020016000801916815260200161194f611962565b815260200161195c611962565b81525090565b6020604051908101604052806000815250905600a165627a7a7230582071fab0a8f616320cc71139754b2c622dca6e14be88d014791c6ccd6429c4323a0029",
  "source": "pragma solidity 0.4.23;\n\n\ncontract LiquidDemocracy {\n\n    // All the information about ballots is stored here\n    struct BallotData {\n        uint number;\n        Ballot[] ballots;\n    }\n\n    // A ballot that shows options to choose\n    struct Ballot {\n        address owner;\n        uint id;\n        bytes32 ipfsBallotTitle;\n        BallotOption option1;\n        BallotOption option2;\n    }\n\n    // This is the type for a single option shown in a ballot\n    struct BallotOption {\n        uint voteCount; // number of accumulated votes\n    }\n\n    // This is the type for a single voter metadata\n    struct Voter {\n        uint weight;\n        bool voted;\n        bool registered;\n        bytes32 ipfsHash;\n    }\n\n    address[] public voters;\n\n    BallotData ballotData;\n\n    mapping(address => address) delegations;\n\n    mapping(address => Voter) public votersData;\n\n    /**\n    * @notice gets the addresses of the voters\n    */\n    function getVoters() public view returns (address[]) {\n        return voters;\n    }\n\n    /**\n    * @notice Gets number of voters registered\n    */\n    function getVotersCount() public view returns (uint) {\n        return voters.length;\n    }\n\n    /**\n    * @notice Gets number of ballots created\n    */\n    function getBallotCount() public view returns (uint) {\n        return ballotData.number;\n    }\n    \n    /**\n    * @notice Getter for votersData\n    * @param voter The voter to obtain\n    */\n    function getVoterData(address voter) public view returns (uint, bool, bool, bytes32) {\n        return (votersData[voter].weight, votersData[voter].registered, votersData[voter].voted,\n            votersData[voter].ipfsHash);\n    }\n\n    /**\n    * @notice Getter for ballot option vote count for option 1\n    * @param ballotId The desired option to read vote count from\n    */\n    function getBallotVoteOption1Count(uint ballotId) public view returns (uint votes) {\n        return ballotData.ballots[ballotId].option1.voteCount;\n    }\n\n    /**\n    * @notice Getter for ballot option vote count for option 2\n    * @param ballotId The desired option to read vote count from\n    */\n    function getBallotVoteOption2Count(uint ballotId) public view returns (uint votes) {\n        return ballotData.ballots[ballotId].option2.voteCount;\n    }\n\n    /**\n    * @notice Getter for ballot title\n    * @param ballotId The desired option to read vote count from\n    */\n    function getBallotTitle(uint ballotId) public view returns (bytes32 ipfsTitle) {\n        return ballotData.ballots[ballotId].ipfsBallotTitle;\n    }\n\n    /**\n    * @notice Gets the weight of the voter that calls this method\n    */\n    function getMyWeight() public view returns (uint) {\n        require(votersData[msg.sender].registered);\n        return votersData[msg.sender].weight;\n    }\n\n    /**\n    * @notice Gets the representative of the voter that calls this method\n    */\n    function getMyRepresentative() public view returns (address) {\n        require(votersData[msg.sender].registered);\n        return delegations[msg.sender];\n    }\n\n    /**\n    * @notice Gets ballots\n    */\n    function getLastBallot() public view returns (bytes32, address) {\n        return (\n            ballotData.ballots[ballotData.number - 1].ipfsBallotTitle,\n            ballotData.ballots[ballotData.number - 1].owner\n        );\n    }\n\n    /**\n    * @notice Register a new voter\n    */\n    function registerNewVoter(bytes32 ipfsHash) external {\n        registerNewVoter(msg.sender, ipfsHash);\n    }\n\n    /**\n    * @notice Reset voter registered flag\n    */\n    function resetVoter() external {\n        resetVoter(msg.sender);\n    }\n\n    /**\n    * @notice Create a new ballot\n    */\n    function createNewBallot(bytes32 ipfsTitle) external {\n        createNewBallot(msg.sender, ipfsTitle);\n    }\n\n    /**\n     * @notice Delegate the voting power of a voter to another voter\n     * Only the person calling this function has the power of delegating his/her vote\n     * @param representative voter to delegate the voting power to\n     */\n    function delegate(address representative) external {\n        delegate(msg.sender, representative);\n    }\n\n    /**\n    * @notice Revoke the delegation and voting power already delegated\n    */\n    function revoke() external {\n        revoke(msg.sender);\n    }\n\n    /**\n    * @notice Perform a vote in the ballot\n    * @param voteOption The integer option chosen by voter\n    */\n    function vote(uint ballotId, uint voteOption) external {\n        vote(msg.sender, ballotId, voteOption);\n    }\n\n    /**\n    * @notice Register a new voter setting initial Voter elements\n    */\n    function registerNewVoter(address voterAddress, bytes32 ipfsHash) private {\n        // Voters already registered cannot register again\n        require(!votersData[voterAddress].registered);\n\n        votersData[voterAddress].ipfsHash = ipfsHash;\n        votersData[voterAddress].weight = 1;\n        votersData[voterAddress].registered = true;\n        delegations[voterAddress] = voterAddress;\n        voters.push(voterAddress);\n    }\n\n    /**\n    * @notice Reset registered value for development purposes\n    */\n    function resetVoter(address voterAddress) private {\n        require(votersData[voterAddress].registered);\n\n        votersData[voterAddress].registered = false;\n    }\n\n    /**\n    * @notice Create a new ballot\n    */\n    function createNewBallot(address from, bytes32 ipfsTitle) private {\n//        require(votersData[from].registered); TODO\n\n        Ballot memory ballot = Ballot(from, ballotData.number, ipfsTitle, BallotOption(0), BallotOption(0));\n        ballotData.ballots.push(ballot);\n        ballotData.number += 1;\n    }\n\n    /**\n     * @notice Delegate the voting power of a voter to another voter\n     * @param from voter from which to delegate voting power\n     * @param representative voter to delegate the voting power to\n     */\n    function delegate(address from, address representative) private {\n\n        address representee = from;\n        require(delegations[representee] == representee); // At the moment you can apply a delegation once\n        require(votersData[representee].registered);\n        require(votersData[representative].registered);\n\n        delegations[representee] = representative; // Delegate my own vote\n\n        address nextRepresentative = representative;\n\n        // While there is voter that hasn't performed a delegation to another voter\n        // transitively add weight from their voting power\n        while (delegations[nextRepresentative] != nextRepresentative) {\n            votersData[nextRepresentative].weight += votersData[representee].weight;\n            nextRepresentative = delegations[nextRepresentative];\n        }\n\n        votersData[nextRepresentative].weight += votersData[representee].weight;\n\n    }\n\n    /**\n    * @notice Revoke the delegation and voting power already delegated\n    * @param from revoke delegations on this voter\n    */\n    function revoke(address from) private {\n\n        address representee = from;\n        require(votersData[representee].registered);\n        require(delegations[representee] != representee); // You must have a delegation already\n\n        address nextRepresentative = delegations[representee];\n\n        // While there is voter that hasn't performed a delegation to another voter\n        // transitively remove weight from their voting power\n        while (delegations[nextRepresentative] != nextRepresentative) {\n            votersData[nextRepresentative].weight -= votersData[representee].weight;\n            nextRepresentative = delegations[nextRepresentative];\n        }\n        votersData[nextRepresentative].weight -= votersData[representee].weight;\n        delegations[representee] = representee;\n\n    }\n\n    /**\n    * @notice Record a vote in the ballot\n    * @param voter The address of the voter\n    * @param voteOption The integer option chosen by voter\n    */\n    function vote(address voter, uint ballotId, uint voteOption) private {\n        // Cannot vote more than once and must be registered\n        require(votersData[voter].registered);\n        require(!votersData[voter].voted);\n\n        votersData[voter].voted = true;\n\n        uint weight = votersData[voter].weight;\n        if (voteOption == 1) {\n            ballotData.ballots[ballotId].option1.voteCount += weight;\n        } else {\n            ballotData.ballots[ballotId].option2.voteCount += weight;\n        }\n\n    }\n}\n",
  "sourcePath": "/home/lucas/Projects/DE/github/contracts/contracts/LiquidDemocracy.sol",
  "compiler": {
    "name": "solc",
    "version": "0.4.23+commit.124ca40d.Emscripten.clang"
  },
  "schemaVersion": "2.0.0",
  "updatedAt": "2018-05-04T18:03:32.647Z"
}