{
  "contractName": "LiquidDemocracy",
  "abi": [
    {
      "constant": true,
      "inputs": [
        {
          "name": "",
          "type": "address"
        }
      ],
      "name": "votersData",
      "outputs": [
        {
          "name": "weight",
          "type": "uint256"
        },
        {
          "name": "voted",
          "type": "bool"
        },
        {
          "name": "registered",
          "type": "bool"
        },
        {
          "name": "ipfsName",
          "type": "bytes32"
        },
        {
          "name": "ipfsEmail",
          "type": "bytes32"
        }
      ],
      "payable": false,
      "stateMutability": "view",
      "type": "function"
    },
    {
      "constant": true,
      "inputs": [
        {
          "name": "",
          "type": "uint256"
        }
      ],
      "name": "voters",
      "outputs": [
        {
          "name": "",
          "type": "address"
        }
      ],
      "payable": false,
      "stateMutability": "view",
      "type": "function"
    },
    {
      "constant": true,
      "inputs": [],
      "name": "getBallotCount",
      "outputs": [
        {
          "name": "",
          "type": "uint256"
        }
      ],
      "payable": false,
      "stateMutability": "view",
      "type": "function"
    },
    {
      "constant": true,
      "inputs": [
        {
          "name": "voter",
          "type": "address"
        }
      ],
      "name": "getVoterData",
      "outputs": [
        {
          "name": "",
          "type": "uint256"
        },
        {
          "name": "",
          "type": "bool"
        },
        {
          "name": "",
          "type": "bool"
        }
      ],
      "payable": false,
      "stateMutability": "view",
      "type": "function"
    },
    {
      "constant": true,
      "inputs": [
        {
          "name": "ballotId",
          "type": "uint256"
        }
      ],
      "name": "getBallotVoteOption1Count",
      "outputs": [
        {
          "name": "votes",
          "type": "uint256"
        }
      ],
      "payable": false,
      "stateMutability": "view",
      "type": "function"
    },
    {
      "constant": true,
      "inputs": [
        {
          "name": "ballotId",
          "type": "uint256"
        }
      ],
      "name": "getBallotVoteOption2Count",
      "outputs": [
        {
          "name": "votes",
          "type": "uint256"
        }
      ],
      "payable": false,
      "stateMutability": "view",
      "type": "function"
    },
    {
      "constant": true,
      "inputs": [
        {
          "name": "ballotId",
          "type": "uint256"
        }
      ],
      "name": "getBallotTitle",
      "outputs": [
        {
          "name": "ipfsTitle",
          "type": "bytes32"
        }
      ],
      "payable": false,
      "stateMutability": "view",
      "type": "function"
    },
    {
      "constant": true,
      "inputs": [],
      "name": "getMyWeight",
      "outputs": [
        {
          "name": "",
          "type": "uint256"
        }
      ],
      "payable": false,
      "stateMutability": "view",
      "type": "function"
    },
    {
      "constant": true,
      "inputs": [],
      "name": "getMyRepresentative",
      "outputs": [
        {
          "name": "",
          "type": "address"
        }
      ],
      "payable": false,
      "stateMutability": "view",
      "type": "function"
    },
    {
      "constant": true,
      "inputs": [],
      "name": "getLastBallot",
      "outputs": [
        {
          "name": "",
          "type": "bytes32"
        }
      ],
      "payable": false,
      "stateMutability": "view",
      "type": "function"
    },
    {
      "constant": false,
      "inputs": [
        {
          "name": "ipfsName",
          "type": "bytes32"
        },
        {
          "name": "ipfsEmail",
          "type": "bytes32"
        }
      ],
      "name": "registerNewVoter",
      "outputs": [],
      "payable": false,
      "stateMutability": "nonpayable",
      "type": "function"
    },
    {
      "constant": false,
      "inputs": [
        {
          "name": "ipfsTitle",
          "type": "bytes32"
        }
      ],
      "name": "createNewBallot",
      "outputs": [],
      "payable": false,
      "stateMutability": "nonpayable",
      "type": "function"
    },
    {
      "constant": false,
      "inputs": [
        {
          "name": "representative",
          "type": "address"
        }
      ],
      "name": "delegate",
      "outputs": [],
      "payable": false,
      "stateMutability": "nonpayable",
      "type": "function"
    },
    {
      "constant": false,
      "inputs": [],
      "name": "revoke",
      "outputs": [],
      "payable": false,
      "stateMutability": "nonpayable",
      "type": "function"
    },
    {
      "constant": false,
      "inputs": [
        {
          "name": "ballotId",
          "type": "uint256"
        },
        {
          "name": "voteOption",
          "type": "uint256"
        }
      ],
      "name": "vote",
      "outputs": [],
      "payable": false,
      "stateMutability": "nonpayable",
      "type": "function"
    }
  ],
  "bytecode": "0x608060405234801561001057600080fd5b50611690806100206000396000f3006080604052600436106100db576000357c0100000000000000000000000000000000000000000000000000000000900463ffffffff168063077e43b4146100e05780632ceaa7171461011357806331b6e2fb1461015457806347a2834e1461017f5780635a365798146101c05780635c19a95c146101ff57806363d82f771461024257806381657e90146102cd5780638fb4cd80146102fe578063b384abef1461036b578063b4741495146103a2578063b6549f75146103cd578063da58c7d9146103e4578063e7b7a95f14610451578063f3150a32146104a8575b600080fd5b3480156100ec57600080fd5b506100f56104f1565b60405180826000191660001916815260200191505060405180910390f35b34801561011f57600080fd5b5061013e60048036038101908080359060200190929190505050610522565b6040518082815260200191505060405180910390f35b34801561016057600080fd5b50610169610551565b6040518082815260200191505060405180910390f35b34801561018b57600080fd5b506101aa600480360381019080803590602001909291905050506105f6565b6040518082815260200191505060405180910390f35b3480156101cc57600080fd5b506101fd60048036038101908080356000191690602001909291908035600019169060200190929190505050610625565b005b34801561020b57600080fd5b50610240600480360381019080803573ffffffffffffffffffffffffffffffffffffffff169060200190929190505050610634565b005b34801561024e57600080fd5b50610283600480360381019080803573ffffffffffffffffffffffffffffffffffffffff169060200190929190505050610641565b604051808681526020018515151515815260200184151515158152602001836000191660001916815260200182600019166000191681526020019550505050505060405180910390f35b3480156102d957600080fd5b506102fc6004803603810190808035600019169060200190929190505050610691565b005b34801561030a57600080fd5b5061033f600480360381019080803573ffffffffffffffffffffffffffffffffffffffff16906020019092919050505061069e565b604051808481526020018315151515815260200182151515158152602001935050505060405180910390f35b34801561037757600080fd5b506103a06004803603810190808035906020019092919080359060200190929190505050610793565b005b3480156103ae57600080fd5b506103b76107a2565b6040518082815260200191505060405180910390f35b3480156103d957600080fd5b506103e26107af565b005b3480156103f057600080fd5b5061040f600480360381019080803590602001909291905050506107ba565b604051808273ffffffffffffffffffffffffffffffffffffffff1673ffffffffffffffffffffffffffffffffffffffff16815260200191505060405180910390f35b34801561045d57600080fd5b506104666107f8565b604051808273ffffffffffffffffffffffffffffffffffffffff1673ffffffffffffffffffffffffffffffffffffffff16815260200191505060405180910390f35b3480156104b457600080fd5b506104d3600480360381019080803590602001909291905050506108ba565b60405180826000191660001916815260200191505060405180910390f35b600060018001600180600001540381548110151561050b57fe5b906000526020600020906004020160010154905090565b6000600180018281548110151561053557fe5b9060005260206000209060040201600301600001549050919050565b6000600460003373ffffffffffffffffffffffffffffffffffffffff1673ffffffffffffffffffffffffffffffffffffffff16815260200190815260200160002060010160019054906101000a900460ff1615156105ae57600080fd5b600460003373ffffffffffffffffffffffffffffffffffffffff1673ffffffffffffffffffffffffffffffffffffffff16815260200190815260200160002060000154905090565b6000600180018281548110151561060957fe5b9060005260206000209060040201600201600001549050919050565b6106303383836108e6565b5050565b61063e3382610b64565b50565b60046020528060005260406000206000915090508060000154908060010160009054906101000a900460ff16908060010160019054906101000a900460ff16908060020154908060030154905085565b61069b3382610f60565b50565b6000806000600460008573ffffffffffffffffffffffffffffffffffffffff1673ffffffffffffffffffffffffffffffffffffffff16815260200190815260200160002060000154600460008673ffffffffffffffffffffffffffffffffffffffff1673ffffffffffffffffffffffffffffffffffffffff16815260200190815260200160002060010160019054906101000a900460ff16600460008773ffffffffffffffffffffffffffffffffffffffff1673ffffffffffffffffffffffffffffffffffffffff16815260200190815260200160002060010160009054906101000a900460ff169250925092509193909250565b61079e338383611044565b5050565b6000600160000154905090565b6107b833611218565b565b6000818154811015156107c957fe5b906000526020600020016000915054906101000a900473ffffffffffffffffffffffffffffffffffffffff1681565b6000600460003373ffffffffffffffffffffffffffffffffffffffff1673ffffffffffffffffffffffffffffffffffffffff16815260200190815260200160002060010160019054906101000a900460ff16151561085557600080fd5b600360003373ffffffffffffffffffffffffffffffffffffffff1673ffffffffffffffffffffffffffffffffffffffff16815260200190815260200160002060009054906101000a900473ffffffffffffffffffffffffffffffffffffffff16905090565b600060018001828154811015156108cd57fe5b9060005260206000209060040201600101549050919050565b600460008473ffffffffffffffffffffffffffffffffffffffff1673ffffffffffffffffffffffffffffffffffffffff16815260200190815260200160002060010160019054906101000a900460ff1615151561094257600080fd5b81600460008573ffffffffffffffffffffffffffffffffffffffff1673ffffffffffffffffffffffffffffffffffffffff168152602001908152602001600020600201816000191690555080600460008573ffffffffffffffffffffffffffffffffffffffff1673ffffffffffffffffffffffffffffffffffffffff16815260200190815260200160002060030181600019169055506001600460008573ffffffffffffffffffffffffffffffffffffffff1673ffffffffffffffffffffffffffffffffffffffff168152602001908152602001600020600001819055506001600460008573ffffffffffffffffffffffffffffffffffffffff1673ffffffffffffffffffffffffffffffffffffffff16815260200190815260200160002060010160016101000a81548160ff02191690831515021790555082600360008573ffffffffffffffffffffffffffffffffffffffff1673ffffffffffffffffffffffffffffffffffffffff16815260200190815260200160002060006101000a81548173ffffffffffffffffffffffffffffffffffffffff021916908373ffffffffffffffffffffffffffffffffffffffff16021790555060008390806001815401808255809150509060018203906000526020600020016000909192909190916101000a81548173ffffffffffffffffffffffffffffffffffffffff021916908373ffffffffffffffffffffffffffffffffffffffff16021790555050505050565b6000808391508173ffffffffffffffffffffffffffffffffffffffff16600360008473ffffffffffffffffffffffffffffffffffffffff1673ffffffffffffffffffffffffffffffffffffffff16815260200190815260200160002060009054906101000a900473ffffffffffffffffffffffffffffffffffffffff1673ffffffffffffffffffffffffffffffffffffffff16141515610c0357600080fd5b600460008373ffffffffffffffffffffffffffffffffffffffff1673ffffffffffffffffffffffffffffffffffffffff16815260200190815260200160002060010160019054906101000a900460ff161515610c5e57600080fd5b600460008473ffffffffffffffffffffffffffffffffffffffff1673ffffffffffffffffffffffffffffffffffffffff16815260200190815260200160002060010160019054906101000a900460ff161515610cb957600080fd5b82600360008473ffffffffffffffffffffffffffffffffffffffff1673ffffffffffffffffffffffffffffffffffffffff16815260200190815260200160002060006101000a81548173ffffffffffffffffffffffffffffffffffffffff021916908373ffffffffffffffffffffffffffffffffffffffff1602179055508290505b8073ffffffffffffffffffffffffffffffffffffffff16600360008373ffffffffffffffffffffffffffffffffffffffff1673ffffffffffffffffffffffffffffffffffffffff16815260200190815260200160002060009054906101000a900473ffffffffffffffffffffffffffffffffffffffff1673ffffffffffffffffffffffffffffffffffffffff16141515610ec857600460008373ffffffffffffffffffffffffffffffffffffffff1673ffffffffffffffffffffffffffffffffffffffff16815260200190815260200160002060000154600460008373ffffffffffffffffffffffffffffffffffffffff1673ffffffffffffffffffffffffffffffffffffffff16815260200190815260200160002060000160008282540192505081905550600360008273ffffffffffffffffffffffffffffffffffffffff1673ffffffffffffffffffffffffffffffffffffffff16815260200190815260200160002060009054906101000a900473ffffffffffffffffffffffffffffffffffffffff169050610d3b565b600460008373ffffffffffffffffffffffffffffffffffffffff1673ffffffffffffffffffffffffffffffffffffffff16815260200190815260200160002060000154600460008373ffffffffffffffffffffffffffffffffffffffff1673ffffffffffffffffffffffffffffffffffffffff1681526020019081526020016000206000016000828254019250508190555050505050565b610f68611618565b6080604051908101604052806001600001548152602001836000191681526020016020604051908101604052806000815250815260200160206040519081016040528060008152508152509050600180018190806001815401808255809150509060018203906000526020600020906004020160009091929091909150600082015181600001556020820151816001019060001916905560408201518160020160008201518160000155505060608201518160030160008201518160000155505050505060018060000160008282540192505081905550505050565b6000600460008573ffffffffffffffffffffffffffffffffffffffff1673ffffffffffffffffffffffffffffffffffffffff16815260200190815260200160002060010160019054906101000a900460ff1615156110a157600080fd5b600460008573ffffffffffffffffffffffffffffffffffffffff1673ffffffffffffffffffffffffffffffffffffffff16815260200190815260200160002060010160009054906101000a900460ff161515156110fd57600080fd5b6001600460008673ffffffffffffffffffffffffffffffffffffffff1673ffffffffffffffffffffffffffffffffffffffff16815260200190815260200160002060010160006101000a81548160ff021916908315150217905550600460008573ffffffffffffffffffffffffffffffffffffffff1673ffffffffffffffffffffffffffffffffffffffff16815260200190815260200160002060000154905060018214156111de578060018001848154811015156111b857fe5b906000526020600020906004020160020160000160008282540192505081905550611212565b8060018001848154811015156111f057fe5b9060005260206000209060040201600301600001600082825401925050819055505b50505050565b600080829150600460008373ffffffffffffffffffffffffffffffffffffffff1673ffffffffffffffffffffffffffffffffffffffff16815260200190815260200160002060010160019054906101000a900460ff16151561127957600080fd5b8173ffffffffffffffffffffffffffffffffffffffff16600360008473ffffffffffffffffffffffffffffffffffffffff1673ffffffffffffffffffffffffffffffffffffffff16815260200190815260200160002060009054906101000a900473ffffffffffffffffffffffffffffffffffffffff1673ffffffffffffffffffffffffffffffffffffffff161415151561131357600080fd5b600360008373ffffffffffffffffffffffffffffffffffffffff1673ffffffffffffffffffffffffffffffffffffffff16815260200190815260200160002060009054906101000a900473ffffffffffffffffffffffffffffffffffffffff1690505b8073ffffffffffffffffffffffffffffffffffffffff16600360008373ffffffffffffffffffffffffffffffffffffffff1673ffffffffffffffffffffffffffffffffffffffff16815260200190815260200160002060009054906101000a900473ffffffffffffffffffffffffffffffffffffffff1673ffffffffffffffffffffffffffffffffffffffff1614151561150357600460008373ffffffffffffffffffffffffffffffffffffffff1673ffffffffffffffffffffffffffffffffffffffff16815260200190815260200160002060000154600460008373ffffffffffffffffffffffffffffffffffffffff1673ffffffffffffffffffffffffffffffffffffffff16815260200190815260200160002060000160008282540392505081905550600360008273ffffffffffffffffffffffffffffffffffffffff1673ffffffffffffffffffffffffffffffffffffffff16815260200190815260200160002060009054906101000a900473ffffffffffffffffffffffffffffffffffffffff169050611376565b600460008373ffffffffffffffffffffffffffffffffffffffff1673ffffffffffffffffffffffffffffffffffffffff16815260200190815260200160002060000154600460008373ffffffffffffffffffffffffffffffffffffffff1673ffffffffffffffffffffffffffffffffffffffff1681526020019081526020016000206000016000828254039250508190555081600360008473ffffffffffffffffffffffffffffffffffffffff1673ffffffffffffffffffffffffffffffffffffffff16815260200190815260200160002060006101000a81548173ffffffffffffffffffffffffffffffffffffffff021916908373ffffffffffffffffffffffffffffffffffffffff160217905550505050565b608060405190810160405280600081526020016000801916815260200161163d611650565b815260200161164a611650565b81525090565b6020604051908101604052806000815250905600a165627a7a72305820c8fe1a223cd186d360c0779193be796bcce3d487c4c98426d1744684ff1c82ec0029",
  "source": "pragma solidity 0.4.23;\n\n\ncontract LiquidDemocracy {\n\n    // All the information about ballots is stored here\n    struct BallotData {\n        uint number;\n        Ballot[] ballots;\n    }\n\n    // A ballot that shows options to choose\n    struct Ballot {\n        uint id;\n        bytes32 ipfsBallotTitle;\n        BallotOption option1;\n        BallotOption option2;\n    }\n\n    // This is the type for a single option shown in a ballot\n    struct BallotOption {\n        uint voteCount; // number of accumulated votes\n    }\n\n    // This is the type for a single voter metadata\n    struct Voter {\n        uint weight;\n        bool voted;\n        bool registered;\n        bytes32 ipfsName;\n        bytes32 ipfsEmail;\n    }\n\n    address[] public voters;\n\n    BallotData ballotData;\n\n    mapping(address => address) delegations;\n\n    mapping(address => Voter) public votersData;\n\n    /**\n    * @notice Gets number of ballots created\n    */\n    function getBallotCount() public view returns (uint) {\n        return ballotData.number;\n    }\n    \n    /**\n    * @notice Getter for votersData\n    * @param voter The voter to obtain\n    */\n    function getVoterData(address voter) public view returns (uint, bool, bool) {\n        return (votersData[voter].weight, votersData[voter].registered, votersData[voter].voted);\n    }\n\n    /**\n    * @notice Getter for ballot option vote count for option 1\n    * @param ballotId The desired option to read vote count from\n    */\n    function getBallotVoteOption1Count(uint ballotId) public view returns (uint votes) {\n        return ballotData.ballots[ballotId].option1.voteCount;\n    }\n\n    /**\n    * @notice Getter for ballot option vote count for option 2\n    * @param ballotId The desired option to read vote count from\n    */\n    function getBallotVoteOption2Count(uint ballotId) public view returns (uint votes) {\n        return ballotData.ballots[ballotId].option2.voteCount;\n    }\n\n    /**\n    * @notice Getter for ballot title\n    * @param ballotId The desired option to read vote count from\n    */\n    function getBallotTitle(uint ballotId) public view returns (bytes32 ipfsTitle) {\n        return ballotData.ballots[ballotId].ipfsBallotTitle;\n    }\n\n    /**\n    * @notice Gets the weight of the voter that calls this method\n    */\n    function getMyWeight() public view returns (uint) {\n        require(votersData[msg.sender].registered);\n        return votersData[msg.sender].weight;\n    }\n\n    /**\n    * @notice Gets the representative of the voter that calls this method\n    */\n    function getMyRepresentative() public view returns (address) {\n        require(votersData[msg.sender].registered);\n        return delegations[msg.sender];\n    }\n\n    /**\n    * @notice Gets ballots\n    */\n    function getLastBallot() public view returns (bytes32) {\n        return ballotData.ballots[ballotData.number - 1].ipfsBallotTitle;\n    }\n\n    /**\n    * @notice Register a new voter\n    */\n    function registerNewVoter(bytes32 ipfsName, bytes32 ipfsEmail) external {\n        registerNewVoter(msg.sender, ipfsName, ipfsEmail);\n    }\n\n    /**\n    * @notice Create a new ballot\n    */\n    function createNewBallot(bytes32 ipfsTitle) external {\n        createNewBallot(msg.sender, ipfsTitle);\n    }\n\n    /**\n     * @notice Delegate the voting power of a voter to another voter\n     * Only the person calling this function has the power of delegating his/her vote\n     * @param representative voter to delegate the voting power to\n     */\n    function delegate(address representative) external {\n        delegate(msg.sender, representative);\n    }\n\n    /**\n    * @notice Revoke the delegation and voting power already delegated\n    */\n    function revoke() external {\n        revoke(msg.sender);\n    }\n\n    /**\n    * @notice Perform a vote in the ballot\n    * @param voteOption The integer option chosen by voter\n    */\n    function vote(uint ballotId, uint voteOption) external {\n        vote(msg.sender, ballotId, voteOption);\n    }\n\n    /**\n    * @notice Register a new voter setting initial Voter elements\n    */\n    function registerNewVoter(address voterAddress, bytes32 ipfsName, bytes32 ipfsEmail) private {\n        // Voters already registered cannot register again\n        require(!votersData[voterAddress].registered);\n\n        votersData[voterAddress].ipfsName = ipfsName;\n        votersData[voterAddress].ipfsEmail = ipfsEmail;\n        votersData[voterAddress].weight = 1;\n        votersData[voterAddress].registered = true;\n        delegations[voterAddress] = voterAddress;\n        voters.push(voterAddress);\n    }\n\n    /**\n    * @notice Create a new ballot\n    */\n    function createNewBallot(address from, bytes32 ipfsTitle) private {\n//        require(votersData[from].registered); TODO\n\n        Ballot memory ballot = Ballot(ballotData.number, ipfsTitle, BallotOption(0), BallotOption(0));\n        ballotData.ballots.push(ballot);\n        ballotData.number += 1;\n    }\n\n    /**\n     * @notice Delegate the voting power of a voter to another voter\n     * @param from voter from which to delegate voting power\n     * @param representative voter to delegate the voting power to\n     */\n    function delegate(address from, address representative) private {\n\n        address representee = from;\n        require(delegations[representee] == representee); // At the moment you can apply a delegation once\n        require(votersData[representee].registered);\n        require(votersData[representative].registered);\n\n        delegations[representee] = representative; // Delegate my own vote\n\n        address nextRepresentative = representative;\n\n        // While there is voter that hasn't performed a delegation to another voter\n        // transitively add weight from their voting power\n        while (delegations[nextRepresentative] != nextRepresentative) {\n            votersData[nextRepresentative].weight += votersData[representee].weight;\n            nextRepresentative = delegations[nextRepresentative];\n        }\n\n        votersData[nextRepresentative].weight += votersData[representee].weight;\n\n    }\n\n    /**\n    * @notice Revoke the delegation and voting power already delegated\n    * @param from revoke delegations on this voter\n    */\n    function revoke(address from) private {\n\n        address representee = from;\n        require(votersData[representee].registered);\n        require(delegations[representee] != representee); // You must have a delegation already\n\n        address nextRepresentative = delegations[representee];\n\n        // While there is voter that hasn't performed a delegation to another voter\n        // transitively remove weight from their voting power\n        while (delegations[nextRepresentative] != nextRepresentative) {\n            votersData[nextRepresentative].weight -= votersData[representee].weight;\n            nextRepresentative = delegations[nextRepresentative];\n        }\n        votersData[nextRepresentative].weight -= votersData[representee].weight;\n        delegations[representee] = representee;\n\n    }\n\n    /**\n    * @notice Record a vote in the ballot\n    * @param voter The address of the voter\n    * @param voteOption The integer option chosen by voter\n    */\n    function vote(address voter, uint ballotId, uint voteOption) private {\n        // Cannot vote more than once and must be registered\n        require(votersData[voter].registered);\n        require(!votersData[voter].voted);\n\n        votersData[voter].voted = true;\n\n        uint weight = votersData[voter].weight;\n        if (voteOption == 1) {\n            ballotData.ballots[ballotId].option1.voteCount += weight;\n        } else {\n            ballotData.ballots[ballotId].option2.voteCount += weight;\n        }\n\n    }\n}\n",
  "sourcePath": "/home/aecc/Medium/blockchain/social-smart-contract/contracts/LiquidDemocracy.sol",
  "compiler": {
    "name": "solc",
    "version": "0.4.23+commit.124ca40d.Emscripten.clang"
  },
  "schemaVersion": "2.0.0",
  "updatedAt": "2018-04-22T10:58:57.990Z"
}