{
  "contractName": "LiquidDemocracy",
  "abi": [
    {
      "constant": true,
      "inputs": [
        {
          "name": "",
          "type": "address"
        }
      ],
      "name": "votersData",
      "outputs": [
        {
          "name": "weight",
          "type": "uint256"
        },
        {
          "name": "voted",
          "type": "bool"
        },
        {
          "name": "votedOption1",
          "type": "bool"
        },
        {
          "name": "votedOption2",
          "type": "bool"
        },
        {
          "name": "registered",
          "type": "bool"
        },
        {
          "name": "ipfsHash",
          "type": "bytes32"
        },
        {
          "name": "representative",
          "type": "address"
        }
      ],
      "payable": false,
      "stateMutability": "view",
      "type": "function"
    },
    {
      "constant": true,
      "inputs": [
        {
          "name": "",
          "type": "uint256"
        }
      ],
      "name": "voters",
      "outputs": [
        {
          "name": "",
          "type": "address"
        }
      ],
      "payable": false,
      "stateMutability": "view",
      "type": "function"
    },
    {
      "constant": true,
      "inputs": [],
      "name": "getVoters",
      "outputs": [
        {
          "name": "",
          "type": "address[]"
        }
      ],
      "payable": false,
      "stateMutability": "view",
      "type": "function"
    },
    {
      "constant": true,
      "inputs": [],
      "name": "getVotersCount",
      "outputs": [
        {
          "name": "",
          "type": "uint256"
        }
      ],
      "payable": false,
      "stateMutability": "view",
      "type": "function"
    },
    {
      "constant": true,
      "inputs": [],
      "name": "getBallotCount",
      "outputs": [
        {
          "name": "",
          "type": "uint256"
        }
      ],
      "payable": false,
      "stateMutability": "view",
      "type": "function"
    },
    {
      "constant": true,
      "inputs": [
        {
          "name": "voter",
          "type": "address"
        }
      ],
      "name": "getVoterData",
      "outputs": [
        {
          "name": "",
          "type": "uint256"
        },
        {
          "name": "",
          "type": "bool"
        },
        {
          "name": "",
          "type": "bool"
        },
        {
          "name": "",
          "type": "bytes32"
        },
        {
          "name": "",
          "type": "address"
        },
        {
          "name": "",
          "type": "bool"
        },
        {
          "name": "",
          "type": "bool"
        }
      ],
      "payable": false,
      "stateMutability": "view",
      "type": "function"
    },
    {
      "constant": true,
      "inputs": [
        {
          "name": "ballotId",
          "type": "uint256"
        }
      ],
      "name": "getBallotVoteOption1Count",
      "outputs": [
        {
          "name": "votes",
          "type": "uint256"
        }
      ],
      "payable": false,
      "stateMutability": "view",
      "type": "function"
    },
    {
      "constant": true,
      "inputs": [
        {
          "name": "ballotId",
          "type": "uint256"
        }
      ],
      "name": "getBallotVoteOption2Count",
      "outputs": [
        {
          "name": "votes",
          "type": "uint256"
        }
      ],
      "payable": false,
      "stateMutability": "view",
      "type": "function"
    },
    {
      "constant": true,
      "inputs": [
        {
          "name": "ballotId",
          "type": "uint256"
        }
      ],
      "name": "getBallotTitle",
      "outputs": [
        {
          "name": "ipfsTitle",
          "type": "bytes32"
        }
      ],
      "payable": false,
      "stateMutability": "view",
      "type": "function"
    },
    {
      "constant": true,
      "inputs": [],
      "name": "getMyWeight",
      "outputs": [
        {
          "name": "",
          "type": "uint256"
        }
      ],
      "payable": false,
      "stateMutability": "view",
      "type": "function"
    },
    {
      "constant": true,
      "inputs": [],
      "name": "getMyRepresentative",
      "outputs": [
        {
          "name": "",
          "type": "address"
        }
      ],
      "payable": false,
      "stateMutability": "view",
      "type": "function"
    },
    {
      "constant": true,
      "inputs": [],
      "name": "getLastBallot",
      "outputs": [
        {
          "name": "",
          "type": "bytes32"
        },
        {
          "name": "",
          "type": "address"
        }
      ],
      "payable": false,
      "stateMutability": "view",
      "type": "function"
    },
    {
      "constant": true,
      "inputs": [
        {
          "name": "voter",
          "type": "address"
        }
      ],
      "name": "getRepresentative",
      "outputs": [
        {
          "name": "",
          "type": "address"
        }
      ],
      "payable": false,
      "stateMutability": "view",
      "type": "function"
    },
    {
      "constant": false,
      "inputs": [
        {
          "name": "ipfsHash",
          "type": "bytes32"
        }
      ],
      "name": "registerNewVoter",
      "outputs": [],
      "payable": false,
      "stateMutability": "nonpayable",
      "type": "function"
    },
    {
      "constant": false,
      "inputs": [],
      "name": "resetVoter",
      "outputs": [],
      "payable": false,
      "stateMutability": "nonpayable",
      "type": "function"
    },
    {
      "constant": false,
      "inputs": [
        {
          "name": "ipfsTitle",
          "type": "bytes32"
        }
      ],
      "name": "createNewBallot",
      "outputs": [],
      "payable": false,
      "stateMutability": "nonpayable",
      "type": "function"
    },
    {
      "constant": false,
      "inputs": [
        {
          "name": "representative",
          "type": "address"
        }
      ],
      "name": "delegate",
      "outputs": [],
      "payable": false,
      "stateMutability": "nonpayable",
      "type": "function"
    },
    {
      "constant": false,
      "inputs": [],
      "name": "revoke",
      "outputs": [],
      "payable": false,
      "stateMutability": "nonpayable",
      "type": "function"
    },
    {
      "constant": false,
      "inputs": [
        {
          "name": "ballotId",
          "type": "uint256"
        },
        {
          "name": "voteOption",
          "type": "uint256"
        }
      ],
      "name": "vote",
      "outputs": [],
      "payable": false,
      "stateMutability": "nonpayable",
      "type": "function"
    }
  ],
  "bytecode": "0x608060405234801561001057600080fd5b50612070806100206000396000f300608060405260043610610107576000357c0100000000000000000000000000000000000000000000000000000000900463ffffffff168063077e43b41461010c5780632ceaa7171461017257806331b6e2fb146101b357806347a2834e146101de578063516b8cad1461021f5780635c19a95c1461025057806363d82f771461029357806381657e90146103585780638fb4cd8014610389578063b384abef1461044e578063b474149514610485578063b6549f75146104b0578063c0f2a777146104c7578063cdd72253146104f2578063da58c7d91461055e578063e7b7a95f146105cb578063edd501fa14610622578063ef53a933146106a5578063f3150a32146106bc575b600080fd5b34801561011857600080fd5b50610121610705565b6040518083600019166000191681526020018273ffffffffffffffffffffffffffffffffffffffff1673ffffffffffffffffffffffffffffffffffffffff1681526020019250505060405180910390f35b34801561017e57600080fd5b5061019d60048036038101908080359060200190929190505050610784565b6040518082815260200191505060405180910390f35b3480156101bf57600080fd5b506101c86107b3565b6040518082815260200191505060405180910390f35b3480156101ea57600080fd5b5061020960048036038101908080359060200190929190505050610858565b6040518082815260200191505060405180910390f35b34801561022b57600080fd5b5061024e6004803603810190808035600019169060200190929190505050610887565b005b34801561025c57600080fd5b50610291600480360381019080803573ffffffffffffffffffffffffffffffffffffffff169060200190929190505050610894565b005b34801561029f57600080fd5b506102d4600480360381019080803573ffffffffffffffffffffffffffffffffffffffff1690602001909291905050506108a1565b604051808881526020018715151515815260200186151515158152602001851515151581526020018415151515815260200183600019166000191681526020018273ffffffffffffffffffffffffffffffffffffffff1673ffffffffffffffffffffffffffffffffffffffff16815260200197505050505050505060405180910390f35b34801561036457600080fd5b506103876004803603810190808035600019169060200190929190505050610937565b005b34801561039557600080fd5b506103ca600480360381019080803573ffffffffffffffffffffffffffffffffffffffff169060200190929190505050610944565b60405180888152602001871515151581526020018615151515815260200185600019166000191681526020018473ffffffffffffffffffffffffffffffffffffffff1673ffffffffffffffffffffffffffffffffffffffff168152602001831515151581526020018215151515815260200197505050505050505060405180910390f35b34801561045a57600080fd5b506104836004803603810190808035906020019092919080359060200190929190505050610b91565b005b34801561049157600080fd5b5061049a610ba0565b6040518082815260200191505060405180910390f35b3480156104bc57600080fd5b506104c5610bad565b005b3480156104d357600080fd5b506104dc610bb8565b6040518082815260200191505060405180910390f35b3480156104fe57600080fd5b50610507610bc4565b6040518080602001828103825283818151815260200191508051906020019060200280838360005b8381101561054a57808201518184015260208101905061052f565b505050509050019250505060405180910390f35b34801561056a57600080fd5b5061058960048036038101908080359060200190929190505050610c52565b604051808273ffffffffffffffffffffffffffffffffffffffff1673ffffffffffffffffffffffffffffffffffffffff16815260200191505060405180910390f35b3480156105d757600080fd5b506105e0610c90565b604051808273ffffffffffffffffffffffffffffffffffffffff1673ffffffffffffffffffffffffffffffffffffffff16815260200191505060405180910390f35b34801561062e57600080fd5b50610663600480360381019080803573ffffffffffffffffffffffffffffffffffffffff169060200190929190505050610ca0565b604051808273ffffffffffffffffffffffffffffffffffffffff1673ffffffffffffffffffffffffffffffffffffffff16815260200191505060405180910390f35b3480156106b157600080fd5b506106ba610d64565b005b3480156106c857600080fd5b506106e760048036038101908080359060200190929190505050610d6f565b60405180826000191660001916815260200191505060405180910390f35b60008060018001600180600001540381548110151561072057fe5b90600052602060002090600502016002015460018001600180600001540381548110151561074a57fe5b906000526020600020906005020160000160009054906101000a900473ffffffffffffffffffffffffffffffffffffffff16915091509091565b6000600180018281548110151561079757fe5b9060005260206000209060050201600401600001549050919050565b6000600460003373ffffffffffffffffffffffffffffffffffffffff1673ffffffffffffffffffffffffffffffffffffffff16815260200190815260200160002060010160039054906101000a900460ff16151561081057600080fd5b600460003373ffffffffffffffffffffffffffffffffffffffff1673ffffffffffffffffffffffffffffffffffffffff16815260200190815260200160002060000154905090565b6000600180018281548110151561086b57fe5b9060005260206000209060050201600301600001549050919050565b6108913382610d9b565b50565b61089e338261115f565b50565b60046020528060005260406000206000915090508060000154908060010160009054906101000a900460ff16908060010160019054906101000a900460ff16908060010160029054906101000a900460ff16908060010160039054906101000a900460ff16908060020154908060030160009054906101000a900473ffffffffffffffffffffffffffffffffffffffff16905087565b61094133826115dc565b50565b6000806000806000806000600460008973ffffffffffffffffffffffffffffffffffffffff1673ffffffffffffffffffffffffffffffffffffffff16815260200190815260200160002060000154600460008a73ffffffffffffffffffffffffffffffffffffffff1673ffffffffffffffffffffffffffffffffffffffff16815260200190815260200160002060010160039054906101000a900460ff16600460008b73ffffffffffffffffffffffffffffffffffffffff1673ffffffffffffffffffffffffffffffffffffffff16815260200190815260200160002060010160009054906101000a900460ff16600460008c73ffffffffffffffffffffffffffffffffffffffff1673ffffffffffffffffffffffffffffffffffffffff16815260200190815260200160002060020154600460008d73ffffffffffffffffffffffffffffffffffffffff1673ffffffffffffffffffffffffffffffffffffffff16815260200190815260200160002060030160009054906101000a900473ffffffffffffffffffffffffffffffffffffffff16600460008e73ffffffffffffffffffffffffffffffffffffffff1673ffffffffffffffffffffffffffffffffffffffff16815260200190815260200160002060010160019054906101000a900460ff16600460008f73ffffffffffffffffffffffffffffffffffffffff1673ffffffffffffffffffffffffffffffffffffffff16815260200190815260200160002060010160029054906101000a900460ff169650965096509650965096509650919395979092949650565b610b9c33838361177e565b5050565b6000600160000154905090565b610bb633611aa1565b565b60008080549050905090565b60606000805480602002602001604051908101604052809291908181526020018280548015610c4857602002820191906000526020600020905b8160009054906101000a900473ffffffffffffffffffffffffffffffffffffffff1673ffffffffffffffffffffffffffffffffffffffff1681526020019060010190808311610bfe575b5050505050905090565b600081815481101515610c6157fe5b906000526020600020016000915054906101000a900473ffffffffffffffffffffffffffffffffffffffff1681565b6000610c9b33610ca0565b905090565b6000600460008373ffffffffffffffffffffffffffffffffffffffff1673ffffffffffffffffffffffffffffffffffffffff16815260200190815260200160002060010160039054906101000a900460ff161515610cfd57600080fd5b600360008373ffffffffffffffffffffffffffffffffffffffff1673ffffffffffffffffffffffffffffffffffffffff16815260200190815260200160002060009054906101000a900473ffffffffffffffffffffffffffffffffffffffff169050919050565b610d6d33611f22565b565b60006001800182815481101515610d8257fe5b9060005260206000209060050201600201549050919050565b600460008373ffffffffffffffffffffffffffffffffffffffff1673ffffffffffffffffffffffffffffffffffffffff16815260200190815260200160002060010160039054906101000a900460ff16151515610df757600080fd5b80600460008473ffffffffffffffffffffffffffffffffffffffff1673ffffffffffffffffffffffffffffffffffffffff16815260200190815260200160002060020181600019169055506001600460008473ffffffffffffffffffffffffffffffffffffffff1673ffffffffffffffffffffffffffffffffffffffff168152602001908152602001600020600001819055506001600460008473ffffffffffffffffffffffffffffffffffffffff1673ffffffffffffffffffffffffffffffffffffffff16815260200190815260200160002060010160036101000a81548160ff02191690831515021790555081600460008473ffffffffffffffffffffffffffffffffffffffff1673ffffffffffffffffffffffffffffffffffffffff16815260200190815260200160002060030160006101000a81548173ffffffffffffffffffffffffffffffffffffffff021916908373ffffffffffffffffffffffffffffffffffffffff1602179055506000600460008473ffffffffffffffffffffffffffffffffffffffff1673ffffffffffffffffffffffffffffffffffffffff16815260200190815260200160002060010160006101000a81548160ff0219169083151502179055506000600460008473ffffffffffffffffffffffffffffffffffffffff1673ffffffffffffffffffffffffffffffffffffffff16815260200190815260200160002060010160016101000a81548160ff0219169083151502179055506000600460008473ffffffffffffffffffffffffffffffffffffffff1673ffffffffffffffffffffffffffffffffffffffff16815260200190815260200160002060010160026101000a81548160ff02191690831515021790555081600360008473ffffffffffffffffffffffffffffffffffffffff1673ffffffffffffffffffffffffffffffffffffffff16815260200190815260200160002060006101000a81548173ffffffffffffffffffffffffffffffffffffffff021916908373ffffffffffffffffffffffffffffffffffffffff16021790555060008290806001815401808255809150509060018203906000526020600020016000909192909190916101000a81548173ffffffffffffffffffffffffffffffffffffffff021916908373ffffffffffffffffffffffffffffffffffffffff160217905550505050565b6000808391508173ffffffffffffffffffffffffffffffffffffffff16600360008473ffffffffffffffffffffffffffffffffffffffff1673ffffffffffffffffffffffffffffffffffffffff16815260200190815260200160002060009054906101000a900473ffffffffffffffffffffffffffffffffffffffff1673ffffffffffffffffffffffffffffffffffffffff161415156111fe57600080fd5b600460008373ffffffffffffffffffffffffffffffffffffffff1673ffffffffffffffffffffffffffffffffffffffff16815260200190815260200160002060010160039054906101000a900460ff16151561125957600080fd5b600460008473ffffffffffffffffffffffffffffffffffffffff1673ffffffffffffffffffffffffffffffffffffffff16815260200190815260200160002060010160039054906101000a900460ff1615156112b457600080fd5b82600360008473ffffffffffffffffffffffffffffffffffffffff1673ffffffffffffffffffffffffffffffffffffffff16815260200190815260200160002060006101000a81548173ffffffffffffffffffffffffffffffffffffffff021916908373ffffffffffffffffffffffffffffffffffffffff16021790555082600460008473ffffffffffffffffffffffffffffffffffffffff1673ffffffffffffffffffffffffffffffffffffffff16815260200190815260200160002060030160006101000a81548173ffffffffffffffffffffffffffffffffffffffff021916908373ffffffffffffffffffffffffffffffffffffffff1602179055508290505b8073ffffffffffffffffffffffffffffffffffffffff16600360008373ffffffffffffffffffffffffffffffffffffffff1673ffffffffffffffffffffffffffffffffffffffff16815260200190815260200160002060009054906101000a900473ffffffffffffffffffffffffffffffffffffffff1673ffffffffffffffffffffffffffffffffffffffff1614151561154457600460008373ffffffffffffffffffffffffffffffffffffffff1673ffffffffffffffffffffffffffffffffffffffff16815260200190815260200160002060000154600460008373ffffffffffffffffffffffffffffffffffffffff1673ffffffffffffffffffffffffffffffffffffffff16815260200190815260200160002060000160008282540192505081905550600360008273ffffffffffffffffffffffffffffffffffffffff1673ffffffffffffffffffffffffffffffffffffffff16815260200190815260200160002060009054906101000a900473ffffffffffffffffffffffffffffffffffffffff1690506113b7565b600460008373ffffffffffffffffffffffffffffffffffffffff1673ffffffffffffffffffffffffffffffffffffffff16815260200190815260200160002060000154600460008373ffffffffffffffffffffffffffffffffffffffff1673ffffffffffffffffffffffffffffffffffffffff1681526020019081526020016000206000016000828254019250508190555050505050565b6115e4611fdb565b600460008473ffffffffffffffffffffffffffffffffffffffff1673ffffffffffffffffffffffffffffffffffffffff16815260200190815260200160002060010160039054906101000a900460ff16151561163f57600080fd5b60a0604051908101604052808473ffffffffffffffffffffffffffffffffffffffff168152602001600160000154815260200183600019168152602001602060405190810160405280600081525081526020016020604051908101604052806000815250815250905060018001819080600181540180825580915050906001820390600052602060002090600502016000909192909190915060008201518160000160006101000a81548173ffffffffffffffffffffffffffffffffffffffff021916908373ffffffffffffffffffffffffffffffffffffffff160217905550602082015181600101556040820151816002019060001916905560608201518160030160008201518160000155505060808201518160040160008201518160000155505050505060018060000160008282540192505081905550505050565b6000600460008573ffffffffffffffffffffffffffffffffffffffff1673ffffffffffffffffffffffffffffffffffffffff16815260200190815260200160002060010160039054906101000a900460ff1615156117db57600080fd5b600460008573ffffffffffffffffffffffffffffffffffffffff1673ffffffffffffffffffffffffffffffffffffffff16815260200190815260200160002060010160009054906101000a900460ff1615151561183757600080fd5b8373ffffffffffffffffffffffffffffffffffffffff16600360008673ffffffffffffffffffffffffffffffffffffffff1673ffffffffffffffffffffffffffffffffffffffff16815260200190815260200160002060009054906101000a900473ffffffffffffffffffffffffffffffffffffffff1673ffffffffffffffffffffffffffffffffffffffff161415156118d057600080fd5b6001600460008673ffffffffffffffffffffffffffffffffffffffff1673ffffffffffffffffffffffffffffffffffffffff16815260200190815260200160002060010160006101000a81548160ff021916908315150217905550600460008573ffffffffffffffffffffffffffffffffffffffff1673ffffffffffffffffffffffffffffffffffffffff1681526020019081526020016000206000015490506001821415611a0c576001600460008673ffffffffffffffffffffffffffffffffffffffff1673ffffffffffffffffffffffffffffffffffffffff16815260200190815260200160002060010160016101000a81548160ff0219169083151502179055508060018001848154811015156119e657fe5b906000526020600020906005020160030160000160008282540192505081905550611a9b565b6001600460008673ffffffffffffffffffffffffffffffffffffffff1673ffffffffffffffffffffffffffffffffffffffff16815260200190815260200160002060010160026101000a81548160ff021916908315150217905550806001800184815481101515611a7957fe5b9060005260206000209060050201600401600001600082825401925050819055505b50505050565b600080829150600460008373ffffffffffffffffffffffffffffffffffffffff1673ffffffffffffffffffffffffffffffffffffffff16815260200190815260200160002060010160039054906101000a900460ff161515611b0257600080fd5b8173ffffffffffffffffffffffffffffffffffffffff16600360008473ffffffffffffffffffffffffffffffffffffffff1673ffffffffffffffffffffffffffffffffffffffff16815260200190815260200160002060009054906101000a900473ffffffffffffffffffffffffffffffffffffffff1673ffffffffffffffffffffffffffffffffffffffff1614151515611b9c57600080fd5b600360008373ffffffffffffffffffffffffffffffffffffffff1673ffffffffffffffffffffffffffffffffffffffff16815260200190815260200160002060009054906101000a900473ffffffffffffffffffffffffffffffffffffffff1690505b8073ffffffffffffffffffffffffffffffffffffffff16600360008373ffffffffffffffffffffffffffffffffffffffff1673ffffffffffffffffffffffffffffffffffffffff16815260200190815260200160002060009054906101000a900473ffffffffffffffffffffffffffffffffffffffff1673ffffffffffffffffffffffffffffffffffffffff16141515611d8c57600460008373ffffffffffffffffffffffffffffffffffffffff1673ffffffffffffffffffffffffffffffffffffffff16815260200190815260200160002060000154600460008373ffffffffffffffffffffffffffffffffffffffff1673ffffffffffffffffffffffffffffffffffffffff16815260200190815260200160002060000160008282540392505081905550600360008273ffffffffffffffffffffffffffffffffffffffff1673ffffffffffffffffffffffffffffffffffffffff16815260200190815260200160002060009054906101000a900473ffffffffffffffffffffffffffffffffffffffff169050611bff565b600460008373ffffffffffffffffffffffffffffffffffffffff1673ffffffffffffffffffffffffffffffffffffffff16815260200190815260200160002060000154600460008373ffffffffffffffffffffffffffffffffffffffff1673ffffffffffffffffffffffffffffffffffffffff1681526020019081526020016000206000016000828254039250508190555081600360008473ffffffffffffffffffffffffffffffffffffffff1673ffffffffffffffffffffffffffffffffffffffff16815260200190815260200160002060006101000a81548173ffffffffffffffffffffffffffffffffffffffff021916908373ffffffffffffffffffffffffffffffffffffffff16021790555081600460008473ffffffffffffffffffffffffffffffffffffffff1673ffffffffffffffffffffffffffffffffffffffff16815260200190815260200160002060030160006101000a81548173ffffffffffffffffffffffffffffffffffffffff021916908373ffffffffffffffffffffffffffffffffffffffff160217905550505050565b600460008273ffffffffffffffffffffffffffffffffffffffff1673ffffffffffffffffffffffffffffffffffffffff16815260200190815260200160002060010160039054906101000a900460ff161515611f7d57600080fd5b6000600460008373ffffffffffffffffffffffffffffffffffffffff1673ffffffffffffffffffffffffffffffffffffffff16815260200190815260200160002060010160036101000a81548160ff02191690831515021790555050565b60a060405190810160405280600073ffffffffffffffffffffffffffffffffffffffff168152602001600081526020016000801916815260200161201d612030565b815260200161202a612030565b81525090565b6020604051908101604052806000815250905600a165627a7a7230582077af1995e7488ec6020c811347bff9c7f2b9bb24c0215101e9907257cffaf1320029",
  "source": "pragma solidity 0.4.23;\n\n\ncontract LiquidDemocracy {\n\n    // All the information about ballots is stored here\n    struct BallotData {\n        uint number;\n        Ballot[] ballots;\n    }\n\n    // A ballot that shows options to choose\n    struct Ballot {\n        address owner;\n        uint id;\n        bytes32 ipfsBallotTitle;\n        BallotOption option1;\n        BallotOption option2;\n    }\n\n    // This is the type for a single option shown in a ballot\n    struct BallotOption {\n        uint voteCount; // number of accumulated votes\n    }\n\n    // This is the type for a single voter metadata\n    struct Voter {\n        uint weight;\n        bool voted;\n        bool votedOption1;\n        bool votedOption2;\n        bool registered;\n        bytes32 ipfsHash;\n        address representative;\n    }\n\n    address[] public voters;\n\n    BallotData ballotData;\n\n    mapping(address => address) delegations;\n\n    mapping(address => Voter) public votersData;\n\n    /**\n    * @notice gets the addresses of the voters\n    */\n    function getVoters() public view returns (address[]) {\n        return voters;\n    }\n\n    /**\n    * @notice Gets number of voters registered\n    */\n    function getVotersCount() public view returns (uint) {\n        return voters.length;\n    }\n\n    /**\n    * @notice Gets number of ballots created\n    */\n    function getBallotCount() public view returns (uint) {\n        return ballotData.number;\n    }\n    \n    /**\n    * @notice Getter for votersData\n    * @param voter The voter to obtain\n    */\n    function getVoterData(address voter) public view returns (uint, bool, bool, bytes32, address, bool, bool) {\n        return (votersData[voter].weight, votersData[voter].registered, votersData[voter].voted,\n            votersData[voter].ipfsHash, votersData[voter].representative,\n            votersData[voter].votedOption1, votersData[voter].votedOption2);\n    }\n\n    /**\n    * @notice Getter for ballot option vote count for option 1\n    * @param ballotId The desired option to read vote count from\n    */\n    function getBallotVoteOption1Count(uint ballotId) public view returns (uint votes) {\n        return ballotData.ballots[ballotId].option1.voteCount;\n    }\n\n    /**\n    * @notice Getter for ballot option vote count for option 2\n    * @param ballotId The desired option to read vote count from\n    */\n    function getBallotVoteOption2Count(uint ballotId) public view returns (uint votes) {\n        return ballotData.ballots[ballotId].option2.voteCount;\n    }\n\n    /**\n    * @notice Getter for ballot title\n    * @param ballotId The desired option to read vote count from\n    */\n    function getBallotTitle(uint ballotId) public view returns (bytes32 ipfsTitle) {\n        return ballotData.ballots[ballotId].ipfsBallotTitle;\n    }\n\n    /**\n    * @notice Gets the weight of the voter that calls this method\n    */\n    function getMyWeight() public view returns (uint) {\n        require(votersData[msg.sender].registered);\n        return votersData[msg.sender].weight;\n    }\n\n    /**\n    * @notice Gets the representative of the voter that calls this method\n    */\n    function getMyRepresentative() public view returns (address) {\n        return getRepresentative(msg.sender);\n    }\n\n    /**\n    * @notice Gets ballots\n    */\n    function getLastBallot() public view returns (bytes32, address) {\n        return (\n            ballotData.ballots[ballotData.number - 1].ipfsBallotTitle,\n            ballotData.ballots[ballotData.number - 1].owner\n        );\n    }\n\n    /**\n    * @notice Gets the representative of the given voter\n    */\n    function getRepresentative(address voter) public view returns (address) {\n        require(votersData[voter].registered);\n        return delegations[voter];\n    }\n\n    /**\n    * @notice Register a new voter\n    */\n    function registerNewVoter(bytes32 ipfsHash) external {\n        registerNewVoter(msg.sender, ipfsHash);\n    }\n\n    /**\n    * @notice Reset voter registered flag\n    */\n    function resetVoter() external {\n        resetVoter(msg.sender);\n    }\n\n    /**\n    * @notice Create a new ballot\n    */\n    function createNewBallot(bytes32 ipfsTitle) external {\n        createNewBallot(msg.sender, ipfsTitle);\n    }\n\n    /**\n     * @notice Delegate the voting power of a voter to another voter\n     * Only the person calling this function has the power of delegating his/her vote\n     * @param representative voter to delegate the voting power to\n     */\n    function delegate(address representative) external {\n        delegate(msg.sender, representative);\n    }\n\n    /**\n    * @notice Revoke the delegation and voting power already delegated\n    */\n    function revoke() external {\n        revoke(msg.sender);\n    }\n\n    /**\n    * @notice Perform a vote in the ballot\n    * @param voteOption The integer option chosen by voter\n    */\n    function vote(uint ballotId, uint voteOption) external {\n        vote(msg.sender, ballotId, voteOption);\n    }\n\n    /**\n    * @notice Register a new voter setting initial Voter elements\n    */\n    function registerNewVoter(address voterAddress, bytes32 ipfsHash) private {\n        // Voters already registered cannot register again\n        require(!votersData[voterAddress].registered);\n\n        votersData[voterAddress].ipfsHash = ipfsHash;\n        votersData[voterAddress].weight = 1;\n        votersData[voterAddress].registered = true;\n        votersData[voterAddress].representative = voterAddress;\n        votersData[voterAddress].voted = false;\n        votersData[voterAddress].votedOption1 = false;\n        votersData[voterAddress].votedOption2 = false;\n        delegations[voterAddress] = voterAddress;\n        voters.push(voterAddress);\n    }\n\n    /**\n    * @notice Reset registered value for development purposes\n    */\n    function resetVoter(address voterAddress) private {\n        require(votersData[voterAddress].registered);\n\n        votersData[voterAddress].registered = false;\n    }\n\n    /**\n    * @notice Create a new ballot\n    */\n    function createNewBallot(address from, bytes32 ipfsTitle) private {\n        require(votersData[from].registered);\n        Ballot memory ballot = Ballot(from, ballotData.number, ipfsTitle, BallotOption(0), BallotOption(0));\n        ballotData.ballots.push(ballot);\n        ballotData.number += 1;\n    }\n\n    /**\n     * @notice Delegate the voting power of a voter to another voter\n     * @param from voter from which to delegate voting power\n     * @param representative voter to delegate the voting power to\n     */\n    function delegate(address from, address representative) private {\n\n        address representee = from;\n        require(delegations[representee] == representee); // At the moment you can apply a delegation once\n        require(votersData[representee].registered);\n        require(votersData[representative].registered);\n\n        delegations[representee] = representative; // Delegate my own vote\n        votersData[representee].representative = representative;\n\n        address nextRepresentative = representative;\n\n        // While there is voter that hasn't performed a delegation to another voter\n        // transitively add weight from their voting power\n        while (delegations[nextRepresentative] != nextRepresentative) {\n            votersData[nextRepresentative].weight += votersData[representee].weight;\n            nextRepresentative = delegations[nextRepresentative];\n        }\n\n        votersData[nextRepresentative].weight += votersData[representee].weight;\n\n    }\n\n    /**\n    * @notice Revoke the delegation and voting power already delegated\n    * @param from revoke delegations on this voter\n    */\n    function revoke(address from) private {\n\n        address representee = from;\n        require(votersData[representee].registered);\n        require(delegations[representee] != representee); // You must have a delegation already\n\n        address nextRepresentative = delegations[representee];\n\n        // While there is voter that hasn't performed a delegation to another voter\n        // transitively remove weight from their voting power\n        while (delegations[nextRepresentative] != nextRepresentative) {\n            votersData[nextRepresentative].weight -= votersData[representee].weight;\n            nextRepresentative = delegations[nextRepresentative];\n        }\n        votersData[nextRepresentative].weight -= votersData[representee].weight;\n        delegations[representee] = representee;\n        votersData[representee].representative = representee;\n\n    }\n\n    /**\n    * @notice Record a vote in the ballot\n    * @param voter The address of the voter\n    * @param voteOption The integer option chosen by voter\n    */\n    function vote(address voter, uint ballotId, uint voteOption) private {\n        // Cannot vote more than once and must be registered\n        require(votersData[voter].registered);\n        require(!votersData[voter].voted);\n        require(delegations[voter] == voter); // Cannot vote if it has a representative\n\n        votersData[voter].voted = true;\n\n        uint weight = votersData[voter].weight;\n        if (voteOption == 1) {\n            votersData[voter].votedOption1 = true;\n            ballotData.ballots[ballotId].option1.voteCount += weight;\n        } else {\n            votersData[voter].votedOption2 = true;\n            ballotData.ballots[ballotId].option2.voteCount += weight;\n        }\n\n    }\n}\n",
  "sourcePath": "/home/aecc/Medium/blockchain/social-smart-contract/contracts/LiquidDemocracy.sol",
  "compiler": {
    "name": "solc",
    "version": "0.4.23+commit.124ca40d.Emscripten.clang"
  },
  "schemaVersion": "2.0.0",
  "updatedAt": "2018-05-10T10:12:35.211Z"
}