{
  "contractName": "LiquidDemocracy",
  "abi": [
    {
      "constant": true,
      "inputs": [
        {
          "name": "",
          "type": "address"
        }
      ],
      "name": "votersData",
      "outputs": [
        {
          "name": "weight",
          "type": "uint256"
        },
        {
          "name": "voted",
          "type": "bool"
        },
        {
          "name": "registered",
          "type": "bool"
        },
        {
          "name": "ipfsName",
          "type": "bytes32"
        },
        {
          "name": "ipfsEmail",
          "type": "bytes32"
        }
      ],
      "payable": false,
      "stateMutability": "view",
      "type": "function"
    },
    {
      "constant": true,
      "inputs": [
        {
          "name": "",
          "type": "uint256"
        }
      ],
      "name": "voters",
      "outputs": [
        {
          "name": "",
          "type": "address"
        }
      ],
      "payable": false,
      "stateMutability": "view",
      "type": "function"
    },
    {
      "constant": true,
      "inputs": [],
      "name": "getVoters",
      "outputs": [
        {
          "name": "",
          "type": "address[]"
        }
      ],
      "payable": false,
      "stateMutability": "view",
      "type": "function"
    },
    {
      "constant": true,
      "inputs": [],
      "name": "getVotersCount",
      "outputs": [
        {
          "name": "",
          "type": "uint256"
        }
      ],
      "payable": false,
      "stateMutability": "view",
      "type": "function"
    },
    {
      "constant": true,
      "inputs": [],
      "name": "getBallotCount",
      "outputs": [
        {
          "name": "",
          "type": "uint256"
        }
      ],
      "payable": false,
      "stateMutability": "view",
      "type": "function"
    },
    {
      "constant": true,
      "inputs": [
        {
          "name": "voter",
          "type": "address"
        }
      ],
      "name": "getVoterData",
      "outputs": [
        {
          "name": "",
          "type": "uint256"
        },
        {
          "name": "",
          "type": "bool"
        },
        {
          "name": "",
          "type": "bool"
        },
        {
          "name": "",
          "type": "bytes32"
        },
        {
          "name": "",
          "type": "bytes32"
        }
      ],
      "payable": false,
      "stateMutability": "view",
      "type": "function"
    },
    {
      "constant": true,
      "inputs": [
        {
          "name": "ballotId",
          "type": "uint256"
        }
      ],
      "name": "getBallotVoteOption1Count",
      "outputs": [
        {
          "name": "votes",
          "type": "uint256"
        }
      ],
      "payable": false,
      "stateMutability": "view",
      "type": "function"
    },
    {
      "constant": true,
      "inputs": [
        {
          "name": "ballotId",
          "type": "uint256"
        }
      ],
      "name": "getBallotVoteOption2Count",
      "outputs": [
        {
          "name": "votes",
          "type": "uint256"
        }
      ],
      "payable": false,
      "stateMutability": "view",
      "type": "function"
    },
    {
      "constant": true,
      "inputs": [
        {
          "name": "ballotId",
          "type": "uint256"
        }
      ],
      "name": "getBallotTitle",
      "outputs": [
        {
          "name": "ipfsTitle",
          "type": "bytes32"
        }
      ],
      "payable": false,
      "stateMutability": "view",
      "type": "function"
    },
    {
      "constant": true,
      "inputs": [],
      "name": "getMyWeight",
      "outputs": [
        {
          "name": "",
          "type": "uint256"
        }
      ],
      "payable": false,
      "stateMutability": "view",
      "type": "function"
    },
    {
      "constant": true,
      "inputs": [],
      "name": "getMyRepresentative",
      "outputs": [
        {
          "name": "",
          "type": "address"
        }
      ],
      "payable": false,
      "stateMutability": "view",
      "type": "function"
    },
    {
      "constant": true,
      "inputs": [],
      "name": "getLastBallot",
      "outputs": [
        {
          "name": "",
          "type": "bytes32"
        },
        {
          "name": "",
          "type": "address"
        }
      ],
      "payable": false,
      "stateMutability": "view",
      "type": "function"
    },
    {
      "constant": false,
      "inputs": [],
      "name": "setStarted",
      "outputs": [],
      "payable": false,
      "stateMutability": "nonpayable",
      "type": "function"
    },
    {
      "constant": true,
      "inputs": [],
      "name": "getStarted",
      "outputs": [
        {
          "name": "",
          "type": "bool"
        }
      ],
      "payable": false,
      "stateMutability": "view",
      "type": "function"
    },
    {
      "constant": false,
      "inputs": [
        {
          "name": "ipfsName",
          "type": "bytes32"
        },
        {
          "name": "ipfsEmail",
          "type": "bytes32"
        }
      ],
      "name": "registerNewVoter",
      "outputs": [],
      "payable": false,
      "stateMutability": "nonpayable",
      "type": "function"
    },
    {
      "constant": false,
      "inputs": [
        {
          "name": "ipfsTitle",
          "type": "bytes32"
        }
      ],
      "name": "createNewBallot",
      "outputs": [],
      "payable": false,
      "stateMutability": "nonpayable",
      "type": "function"
    },
    {
      "constant": false,
      "inputs": [
        {
          "name": "representative",
          "type": "address"
        }
      ],
      "name": "delegate",
      "outputs": [],
      "payable": false,
      "stateMutability": "nonpayable",
      "type": "function"
    },
    {
      "constant": false,
      "inputs": [],
      "name": "revoke",
      "outputs": [],
      "payable": false,
      "stateMutability": "nonpayable",
      "type": "function"
    },
    {
      "constant": false,
      "inputs": [
        {
          "name": "ballotId",
          "type": "uint256"
        },
        {
          "name": "voteOption",
          "type": "uint256"
        }
      ],
      "name": "vote",
      "outputs": [],
      "payable": false,
      "stateMutability": "nonpayable",
      "type": "function"
    }
  ],
  "bytecode": "0x608060405234801561001057600080fd5b50611a1f806100206000396000f300608060405260043610610107576000357c0100000000000000000000000000000000000000000000000000000000900463ffffffff168063077e43b41461010c5780631c249494146101725780632ceaa7171461018957806331b6e2fb146101ca57806347a2834e146101f55780635a365798146102365780635c19a95c1461027557806363d82f77146102b857806381657e90146103435780638fb4cd8014610374578063af0420fc146103ff578063b384abef1461042e578063b474149514610465578063b6549f7514610490578063c0f2a777146104a7578063cdd72253146104d2578063da58c7d91461053e578063e7b7a95f146105ab578063f3150a3214610602575b600080fd5b34801561011857600080fd5b5061012161064b565b6040518083600019166000191681526020018273ffffffffffffffffffffffffffffffffffffffff1673ffffffffffffffffffffffffffffffffffffffff1681526020019250505060405180910390f35b34801561017e57600080fd5b506101876106ce565b005b34801561019557600080fd5b506101b4600480360381019080803590602001909291905050506106ea565b6040518082815260200191505060405180910390f35b3480156101d657600080fd5b506101df61071a565b6040518082815260200191505060405180910390f35b34801561020157600080fd5b50610220600480360381019080803590602001909291905050506107bf565b6040518082815260200191505060405180910390f35b34801561024257600080fd5b50610273600480360381019080803560001916906020019092919080356000191690602001909291905050506107ef565b005b34801561028157600080fd5b506102b6600480360381019080803573ffffffffffffffffffffffffffffffffffffffff1690602001909291905050506107fe565b005b3480156102c457600080fd5b506102f9600480360381019080803573ffffffffffffffffffffffffffffffffffffffff16906020019092919050505061080b565b604051808681526020018515151515815260200184151515158152602001836000191660001916815260200182600019166000191681526020019550505050505060405180910390f35b34801561034f57600080fd5b50610372600480360381019080803560001916906020019092919050505061085b565b005b34801561038057600080fd5b506103b5600480360381019080803573ffffffffffffffffffffffffffffffffffffffff169060200190929190505050610868565b604051808681526020018515151515815260200184151515158152602001836000191660001916815260200182600019166000191681526020019550505050505060405180910390f35b34801561040b57600080fd5b506104146109ec565b604051808215151515815260200191505060405180910390f35b34801561043a57600080fd5b506104636004803603810190808035906020019092919080359060200190929190505050610a02565b005b34801561047157600080fd5b5061047a610a11565b6040518082815260200191505060405180910390f35b34801561049c57600080fd5b506104a5610a1e565b005b3480156104b357600080fd5b506104bc610a29565b6040518082815260200191505060405180910390f35b3480156104de57600080fd5b506104e7610a36565b6040518080602001828103825283818151815260200191508051906020019060200280838360005b8381101561052a57808201518184015260208101905061050f565b505050509050019250505060405180910390f35b34801561054a57600080fd5b5061056960048036038101908080359060200190929190505050610ac4565b604051808273ffffffffffffffffffffffffffffffffffffffff1673ffffffffffffffffffffffffffffffffffffffff16815260200191505060405180910390f35b3480156105b757600080fd5b506105c0610b02565b604051808273ffffffffffffffffffffffffffffffffffffffff1673ffffffffffffffffffffffffffffffffffffffff16815260200191505060405180910390f35b34801561060e57600080fd5b5061062d60048036038101908080359060200190929190505050610bc4565b60405180826000191660001916815260200191505060405180910390f35b600080600260010160016002600001540381548110151561066857fe5b906000526020600020906005020160020154600260010160016002600001540381548110151561069457fe5b906000526020600020906005020160000160009054906101000a900473ffffffffffffffffffffffffffffffffffffffff16915091509091565b60016000806101000a81548160ff021916908315150217905550565b60006002600101828154811015156106fe57fe5b9060005260206000209060050201600401600001549050919050565b6000600560003373ffffffffffffffffffffffffffffffffffffffff1673ffffffffffffffffffffffffffffffffffffffff16815260200190815260200160002060010160019054906101000a900460ff16151561077757600080fd5b600560003373ffffffffffffffffffffffffffffffffffffffff1673ffffffffffffffffffffffffffffffffffffffff16815260200190815260200160002060000154905090565b60006002600101828154811015156107d357fe5b9060005260206000209060050201600301600001549050919050565b6107fa338383610bf1565b5050565b6108083382610e6f565b50565b60056020528060005260406000206000915090508060000154908060010160009054906101000a900460ff16908060010160019054906101000a900460ff16908060020154908060030154905085565b610865338261126b565b50565b6000806000806000600560008773ffffffffffffffffffffffffffffffffffffffff1673ffffffffffffffffffffffffffffffffffffffff16815260200190815260200160002060000154600560008873ffffffffffffffffffffffffffffffffffffffff1673ffffffffffffffffffffffffffffffffffffffff16815260200190815260200160002060010160019054906101000a900460ff16600560008973ffffffffffffffffffffffffffffffffffffffff1673ffffffffffffffffffffffffffffffffffffffff16815260200190815260200160002060010160009054906101000a900460ff16600560008a73ffffffffffffffffffffffffffffffffffffffff1673ffffffffffffffffffffffffffffffffffffffff16815260200190815260200160002060020154600560008b73ffffffffffffffffffffffffffffffffffffffff1673ffffffffffffffffffffffffffffffffffffffff168152602001908152602001600020600301549450945094509450945091939590929450565b60008060009054906101000a900460ff16905090565b610a0d3383836113b4565b5050565b6000600260000154905090565b610a273361158a565b565b6000600180549050905090565b60606001805480602002602001604051908101604052809291908181526020018280548015610aba57602002820191906000526020600020905b8160009054906101000a900473ffffffffffffffffffffffffffffffffffffffff1673ffffffffffffffffffffffffffffffffffffffff1681526020019060010190808311610a70575b5050505050905090565b600181815481101515610ad357fe5b906000526020600020016000915054906101000a900473ffffffffffffffffffffffffffffffffffffffff1681565b6000600560003373ffffffffffffffffffffffffffffffffffffffff1673ffffffffffffffffffffffffffffffffffffffff16815260200190815260200160002060010160019054906101000a900460ff161515610b5f57600080fd5b600460003373ffffffffffffffffffffffffffffffffffffffff1673ffffffffffffffffffffffffffffffffffffffff16815260200190815260200160002060009054906101000a900473ffffffffffffffffffffffffffffffffffffffff16905090565b6000600260010182815481101515610bd857fe5b9060005260206000209060050201600201549050919050565b600560008473ffffffffffffffffffffffffffffffffffffffff1673ffffffffffffffffffffffffffffffffffffffff16815260200190815260200160002060010160019054906101000a900460ff16151515610c4d57600080fd5b81600560008573ffffffffffffffffffffffffffffffffffffffff1673ffffffffffffffffffffffffffffffffffffffff168152602001908152602001600020600201816000191690555080600560008573ffffffffffffffffffffffffffffffffffffffff1673ffffffffffffffffffffffffffffffffffffffff16815260200190815260200160002060030181600019169055506001600560008573ffffffffffffffffffffffffffffffffffffffff1673ffffffffffffffffffffffffffffffffffffffff168152602001908152602001600020600001819055506001600560008573ffffffffffffffffffffffffffffffffffffffff1673ffffffffffffffffffffffffffffffffffffffff16815260200190815260200160002060010160016101000a81548160ff02191690831515021790555082600460008573ffffffffffffffffffffffffffffffffffffffff1673ffffffffffffffffffffffffffffffffffffffff16815260200190815260200160002060006101000a81548173ffffffffffffffffffffffffffffffffffffffff021916908373ffffffffffffffffffffffffffffffffffffffff16021790555060018390806001815401808255809150509060018203906000526020600020016000909192909190916101000a81548173ffffffffffffffffffffffffffffffffffffffff021916908373ffffffffffffffffffffffffffffffffffffffff16021790555050505050565b6000808391508173ffffffffffffffffffffffffffffffffffffffff16600460008473ffffffffffffffffffffffffffffffffffffffff1673ffffffffffffffffffffffffffffffffffffffff16815260200190815260200160002060009054906101000a900473ffffffffffffffffffffffffffffffffffffffff1673ffffffffffffffffffffffffffffffffffffffff16141515610f0e57600080fd5b600560008373ffffffffffffffffffffffffffffffffffffffff1673ffffffffffffffffffffffffffffffffffffffff16815260200190815260200160002060010160019054906101000a900460ff161515610f6957600080fd5b600560008473ffffffffffffffffffffffffffffffffffffffff1673ffffffffffffffffffffffffffffffffffffffff16815260200190815260200160002060010160019054906101000a900460ff161515610fc457600080fd5b82600460008473ffffffffffffffffffffffffffffffffffffffff1673ffffffffffffffffffffffffffffffffffffffff16815260200190815260200160002060006101000a81548173ffffffffffffffffffffffffffffffffffffffff021916908373ffffffffffffffffffffffffffffffffffffffff1602179055508290505b8073ffffffffffffffffffffffffffffffffffffffff16600460008373ffffffffffffffffffffffffffffffffffffffff1673ffffffffffffffffffffffffffffffffffffffff16815260200190815260200160002060009054906101000a900473ffffffffffffffffffffffffffffffffffffffff1673ffffffffffffffffffffffffffffffffffffffff161415156111d357600560008373ffffffffffffffffffffffffffffffffffffffff1673ffffffffffffffffffffffffffffffffffffffff16815260200190815260200160002060000154600560008373ffffffffffffffffffffffffffffffffffffffff1673ffffffffffffffffffffffffffffffffffffffff16815260200190815260200160002060000160008282540192505081905550600460008273ffffffffffffffffffffffffffffffffffffffff1673ffffffffffffffffffffffffffffffffffffffff16815260200190815260200160002060009054906101000a900473ffffffffffffffffffffffffffffffffffffffff169050611046565b600560008373ffffffffffffffffffffffffffffffffffffffff1673ffffffffffffffffffffffffffffffffffffffff16815260200190815260200160002060000154600560008373ffffffffffffffffffffffffffffffffffffffff1673ffffffffffffffffffffffffffffffffffffffff1681526020019081526020016000206000016000828254019250508190555050505050565b61127361198a565b60a0604051908101604052808473ffffffffffffffffffffffffffffffffffffffff16815260200160026000015481526020018360001916815260200160206040519081016040528060008152508152602001602060405190810160405280600081525081525090506002600101819080600181540180825580915050906001820390600052602060002090600502016000909192909190915060008201518160000160006101000a81548173ffffffffffffffffffffffffffffffffffffffff021916908373ffffffffffffffffffffffffffffffffffffffff16021790555060208201518160010155604082015181600201906000191690556060820151816003016000820151816000015550506080820151816004016000820151816000015550505050506001600260000160008282540192505081905550505050565b6000600560008573ffffffffffffffffffffffffffffffffffffffff1673ffffffffffffffffffffffffffffffffffffffff16815260200190815260200160002060010160019054906101000a900460ff16151561141157600080fd5b600560008573ffffffffffffffffffffffffffffffffffffffff1673ffffffffffffffffffffffffffffffffffffffff16815260200190815260200160002060010160009054906101000a900460ff1615151561146d57600080fd5b6001600560008673ffffffffffffffffffffffffffffffffffffffff1673ffffffffffffffffffffffffffffffffffffffff16815260200190815260200160002060010160006101000a81548160ff021916908315150217905550600560008573ffffffffffffffffffffffffffffffffffffffff1673ffffffffffffffffffffffffffffffffffffffff168152602001908152602001600020600001549050600182141561154f578060026001018481548110151561152957fe5b906000526020600020906005020160030160000160008282540192505081905550611584565b8060026001018481548110151561156257fe5b9060005260206000209060050201600401600001600082825401925050819055505b50505050565b600080829150600560008373ffffffffffffffffffffffffffffffffffffffff1673ffffffffffffffffffffffffffffffffffffffff16815260200190815260200160002060010160019054906101000a900460ff1615156115eb57600080fd5b8173ffffffffffffffffffffffffffffffffffffffff16600460008473ffffffffffffffffffffffffffffffffffffffff1673ffffffffffffffffffffffffffffffffffffffff16815260200190815260200160002060009054906101000a900473ffffffffffffffffffffffffffffffffffffffff1673ffffffffffffffffffffffffffffffffffffffff161415151561168557600080fd5b600460008373ffffffffffffffffffffffffffffffffffffffff1673ffffffffffffffffffffffffffffffffffffffff16815260200190815260200160002060009054906101000a900473ffffffffffffffffffffffffffffffffffffffff1690505b8073ffffffffffffffffffffffffffffffffffffffff16600460008373ffffffffffffffffffffffffffffffffffffffff1673ffffffffffffffffffffffffffffffffffffffff16815260200190815260200160002060009054906101000a900473ffffffffffffffffffffffffffffffffffffffff1673ffffffffffffffffffffffffffffffffffffffff1614151561187557600560008373ffffffffffffffffffffffffffffffffffffffff1673ffffffffffffffffffffffffffffffffffffffff16815260200190815260200160002060000154600560008373ffffffffffffffffffffffffffffffffffffffff1673ffffffffffffffffffffffffffffffffffffffff16815260200190815260200160002060000160008282540392505081905550600460008273ffffffffffffffffffffffffffffffffffffffff1673ffffffffffffffffffffffffffffffffffffffff16815260200190815260200160002060009054906101000a900473ffffffffffffffffffffffffffffffffffffffff1690506116e8565b600560008373ffffffffffffffffffffffffffffffffffffffff1673ffffffffffffffffffffffffffffffffffffffff16815260200190815260200160002060000154600560008373ffffffffffffffffffffffffffffffffffffffff1673ffffffffffffffffffffffffffffffffffffffff1681526020019081526020016000206000016000828254039250508190555081600460008473ffffffffffffffffffffffffffffffffffffffff1673ffffffffffffffffffffffffffffffffffffffff16815260200190815260200160002060006101000a81548173ffffffffffffffffffffffffffffffffffffffff021916908373ffffffffffffffffffffffffffffffffffffffff160217905550505050565b60a060405190810160405280600073ffffffffffffffffffffffffffffffffffffffff16815260200160008152602001600080191681526020016119cc6119df565b81526020016119d96119df565b81525090565b6020604051908101604052806000815250905600a165627a7a723058207aab6f07e8b7d7bb23bc6db8a4caa86e0e1dd45ea4dffed58f7deafedaaf38b80029",
  "source": "pragma solidity 0.4.23;\n\n\ncontract LiquidDemocracy {\n\n    // All the information about ballots is stored here\n    struct BallotData {\n        uint number;\n        Ballot[] ballots;\n    }\n\n    // A ballot that shows options to choose\n    struct Ballot {\n        address owner;\n        uint id;\n        bytes32 ipfsBallotTitle;\n        BallotOption option1;\n        BallotOption option2;\n    }\n\n    // This is the type for a single option shown in a ballot\n    struct BallotOption {\n        uint voteCount; // number of accumulated votes\n    }\n\n    // This is the type for a single voter metadata\n    struct Voter {\n        uint weight;\n        bool voted;\n        bool registered;\n        bytes32 ipfsName;\n        bytes32 ipfsEmail;\n    }\n\n    bool started;\n\n    address[] public voters;\n\n    BallotData ballotData;\n\n    mapping(address => address) delegations;\n\n    mapping(address => Voter) public votersData;\n\n    function getVoters() public view returns (address[]) {\n        return voters;\n    }\n\n    /**\n    * @notice Gets number of voters registered\n    */\n    function getVotersCount() public view returns (uint) {\n        return voters.length;\n    }\n\n    /**\n    * @notice Gets number of ballots created\n    */\n    function getBallotCount() public view returns (uint) {\n        return ballotData.number;\n    }\n    \n    /**\n    * @notice Getter for votersData\n    * @param voter The voter to obtain\n    */\n    function getVoterData(address voter) public view returns (uint, bool, bool, bytes32, bytes32) {\n        return (votersData[voter].weight, votersData[voter].registered, votersData[voter].voted,\n            votersData[voter].ipfsName, votersData[voter].ipfsEmail);\n    }\n\n    /**\n    * @notice Getter for ballot option vote count for option 1\n    * @param ballotId The desired option to read vote count from\n    */\n    function getBallotVoteOption1Count(uint ballotId) public view returns (uint votes) {\n        return ballotData.ballots[ballotId].option1.voteCount;\n    }\n\n    /**\n    * @notice Getter for ballot option vote count for option 2\n    * @param ballotId The desired option to read vote count from\n    */\n    function getBallotVoteOption2Count(uint ballotId) public view returns (uint votes) {\n        return ballotData.ballots[ballotId].option2.voteCount;\n    }\n\n    /**\n    * @notice Getter for ballot title\n    * @param ballotId The desired option to read vote count from\n    */\n    function getBallotTitle(uint ballotId) public view returns (bytes32 ipfsTitle) {\n        return ballotData.ballots[ballotId].ipfsBallotTitle;\n    }\n\n    /**\n    * @notice Gets the weight of the voter that calls this method\n    */\n    function getMyWeight() public view returns (uint) {\n        require(votersData[msg.sender].registered);\n        return votersData[msg.sender].weight;\n    }\n\n    /**\n    * @notice Gets the representative of the voter that calls this method\n    */\n    function getMyRepresentative() public view returns (address) {\n        require(votersData[msg.sender].registered);\n        return delegations[msg.sender];\n    }\n\n    /**\n    * @notice Gets ballots\n    */\n    function getLastBallot() public view returns (bytes32, address) {\n        return (\n            ballotData.ballots[ballotData.number - 1].ipfsBallotTitle,\n            ballotData.ballots[ballotData.number - 1].owner\n        );\n    }\n\n    function setStarted() external {\n        started = true;\n    }\n\n    function getStarted() public view returns (bool) {\n        return started;\n    }\n\n    /**\n    * @notice Register a new voter\n    */\n    function registerNewVoter(bytes32 ipfsName, bytes32 ipfsEmail) external {\n        registerNewVoter(msg.sender, ipfsName, ipfsEmail);\n    }\n\n    /**\n    * @notice Create a new ballot\n    */\n    function createNewBallot(bytes32 ipfsTitle) external {\n        createNewBallot(msg.sender, ipfsTitle);\n    }\n\n    /**\n     * @notice Delegate the voting power of a voter to another voter\n     * Only the person calling this function has the power of delegating his/her vote\n     * @param representative voter to delegate the voting power to\n     */\n    function delegate(address representative) external {\n        delegate(msg.sender, representative);\n    }\n\n    /**\n    * @notice Revoke the delegation and voting power already delegated\n    */\n    function revoke() external {\n        revoke(msg.sender);\n    }\n\n    /**\n    * @notice Perform a vote in the ballot\n    * @param voteOption The integer option chosen by voter\n    */\n    function vote(uint ballotId, uint voteOption) external {\n        vote(msg.sender, ballotId, voteOption);\n    }\n\n    /**\n    * @notice Register a new voter setting initial Voter elements\n    */\n    function registerNewVoter(address voterAddress, bytes32 ipfsName, bytes32 ipfsEmail) private {\n        // Voters already registered cannot register again\n        require(!votersData[voterAddress].registered);\n\n        votersData[voterAddress].ipfsName = ipfsName;\n        votersData[voterAddress].ipfsEmail = ipfsEmail;\n        votersData[voterAddress].weight = 1;\n        votersData[voterAddress].registered = true;\n        delegations[voterAddress] = voterAddress;\n        voters.push(voterAddress);\n    }\n\n    /**\n    * @notice Create a new ballot\n    */\n    function createNewBallot(address from, bytes32 ipfsTitle) private {\n//        require(votersData[from].registered); TODO\n\n        Ballot memory ballot = Ballot(from, ballotData.number, ipfsTitle, BallotOption(0), BallotOption(0));\n        ballotData.ballots.push(ballot);\n        ballotData.number += 1;\n    }\n\n    /**\n     * @notice Delegate the voting power of a voter to another voter\n     * @param from voter from which to delegate voting power\n     * @param representative voter to delegate the voting power to\n     */\n    function delegate(address from, address representative) private {\n\n        address representee = from;\n        require(delegations[representee] == representee); // At the moment you can apply a delegation once\n        require(votersData[representee].registered);\n        require(votersData[representative].registered);\n\n        delegations[representee] = representative; // Delegate my own vote\n\n        address nextRepresentative = representative;\n\n        // While there is voter that hasn't performed a delegation to another voter\n        // transitively add weight from their voting power\n        while (delegations[nextRepresentative] != nextRepresentative) {\n            votersData[nextRepresentative].weight += votersData[representee].weight;\n            nextRepresentative = delegations[nextRepresentative];\n        }\n\n        votersData[nextRepresentative].weight += votersData[representee].weight;\n\n    }\n\n    /**\n    * @notice Revoke the delegation and voting power already delegated\n    * @param from revoke delegations on this voter\n    */\n    function revoke(address from) private {\n\n        address representee = from;\n        require(votersData[representee].registered);\n        require(delegations[representee] != representee); // You must have a delegation already\n\n        address nextRepresentative = delegations[representee];\n\n        // While there is voter that hasn't performed a delegation to another voter\n        // transitively remove weight from their voting power\n        while (delegations[nextRepresentative] != nextRepresentative) {\n            votersData[nextRepresentative].weight -= votersData[representee].weight;\n            nextRepresentative = delegations[nextRepresentative];\n        }\n        votersData[nextRepresentative].weight -= votersData[representee].weight;\n        delegations[representee] = representee;\n\n    }\n\n    /**\n    * @notice Record a vote in the ballot\n    * @param voter The address of the voter\n    * @param voteOption The integer option chosen by voter\n    */\n    function vote(address voter, uint ballotId, uint voteOption) private {\n        // Cannot vote more than once and must be registered\n        require(votersData[voter].registered);\n        require(!votersData[voter].voted);\n\n        votersData[voter].voted = true;\n\n        uint weight = votersData[voter].weight;\n        if (voteOption == 1) {\n            ballotData.ballots[ballotId].option1.voteCount += weight;\n        } else {\n            ballotData.ballots[ballotId].option2.voteCount += weight;\n        }\n\n    }\n}\n",
  "sourcePath": "/home/aecc/Medium/blockchain/social-smart-contract/contracts/LiquidDemocracy.sol",
  "compiler": {
    "name": "solc",
    "version": "0.4.23+commit.124ca40d.Emscripten.clang"
  },
  "schemaVersion": "2.0.0",
  "updatedAt": "2018-05-02T20:16:12.725Z"
}