{
  "contractName": "LiquidDemocracy",
  "abi": [
    {
      "constant": true,
      "inputs": [
        {
          "name": "",
          "type": "address"
        }
      ],
      "name": "votersData",
      "outputs": [
        {
          "name": "weight",
          "type": "uint256"
        },
        {
          "name": "voted",
          "type": "bool"
        },
        {
          "name": "registered",
          "type": "bool"
        },
        {
          "name": "ipfsName",
          "type": "address"
        },
        {
          "name": "ipfsEmail",
          "type": "address"
        }
      ],
      "payable": false,
      "stateMutability": "view",
      "type": "function"
    },
    {
      "constant": true,
      "inputs": [
        {
          "name": "",
          "type": "uint256"
        }
      ],
      "name": "voters",
      "outputs": [
        {
          "name": "",
          "type": "address"
        }
      ],
      "payable": false,
      "stateMutability": "view",
      "type": "function"
    },
    {
      "constant": true,
      "inputs": [],
      "name": "getBallotCount",
      "outputs": [
        {
          "name": "",
          "type": "uint256"
        }
      ],
      "payable": false,
      "stateMutability": "view",
      "type": "function"
    },
    {
      "constant": true,
      "inputs": [
        {
          "name": "voter",
          "type": "address"
        }
      ],
      "name": "getVoterData",
      "outputs": [
        {
          "name": "",
          "type": "uint256"
        },
        {
          "name": "",
          "type": "bool"
        },
        {
          "name": "",
          "type": "bool"
        }
      ],
      "payable": false,
      "stateMutability": "view",
      "type": "function"
    },
    {
      "constant": true,
      "inputs": [
        {
          "name": "ballotId",
          "type": "uint256"
        }
      ],
      "name": "getBallotVoteOption1Count",
      "outputs": [
        {
          "name": "votes",
          "type": "uint256"
        }
      ],
      "payable": false,
      "stateMutability": "view",
      "type": "function"
    },
    {
      "constant": true,
      "inputs": [
        {
          "name": "ballotId",
          "type": "uint256"
        }
      ],
      "name": "getBallotVoteOption2Count",
      "outputs": [
        {
          "name": "votes",
          "type": "uint256"
        }
      ],
      "payable": false,
      "stateMutability": "view",
      "type": "function"
    },
    {
      "constant": true,
      "inputs": [
        {
          "name": "ballotId",
          "type": "uint256"
        }
      ],
      "name": "getBallotTitle",
      "outputs": [
        {
          "name": "ipfsTitle",
          "type": "address"
        }
      ],
      "payable": false,
      "stateMutability": "view",
      "type": "function"
    },
    {
      "constant": true,
      "inputs": [],
      "name": "getMyWeight",
      "outputs": [
        {
          "name": "",
          "type": "uint256"
        }
      ],
      "payable": false,
      "stateMutability": "view",
      "type": "function"
    },
    {
      "constant": true,
      "inputs": [],
      "name": "getMyRepresentative",
      "outputs": [
        {
          "name": "",
          "type": "address"
        }
      ],
      "payable": false,
      "stateMutability": "view",
      "type": "function"
    },
    {
      "constant": false,
      "inputs": [
        {
          "name": "ipfsName",
          "type": "address"
        },
        {
          "name": "ipfsEmail",
          "type": "address"
        }
      ],
      "name": "registerNewVoter",
      "outputs": [],
      "payable": false,
      "stateMutability": "nonpayable",
      "type": "function"
    },
    {
      "constant": false,
      "inputs": [
        {
          "name": "ipfsTitle",
          "type": "address"
        }
      ],
      "name": "createNewBallot",
      "outputs": [],
      "payable": false,
      "stateMutability": "nonpayable",
      "type": "function"
    },
    {
      "constant": false,
      "inputs": [
        {
          "name": "representative",
          "type": "address"
        }
      ],
      "name": "delegate",
      "outputs": [],
      "payable": false,
      "stateMutability": "nonpayable",
      "type": "function"
    },
    {
      "constant": false,
      "inputs": [],
      "name": "revoke",
      "outputs": [],
      "payable": false,
      "stateMutability": "nonpayable",
      "type": "function"
    },
    {
      "constant": false,
      "inputs": [
        {
          "name": "ballotId",
          "type": "uint256"
        },
        {
          "name": "voteOption",
          "type": "uint256"
        }
      ],
      "name": "vote",
      "outputs": [],
      "payable": false,
      "stateMutability": "nonpayable",
      "type": "function"
    }
  ],
  "bytecode": "0x608060405234801561001057600080fd5b50611846806100206000396000f3006080604052600436106100d0576000357c0100000000000000000000000000000000000000000000000000000000900463ffffffff1680632ceaa717146100d55780632e42e64a1461011657806331b6e2fb1461015957806347a2834e146101845780635c19a95c146101c557806363d82f77146102085780638fb4cd80146102db578063b384abef14610348578063b47414951461037f578063b6549f75146103aa578063d944ebdf146103c1578063da58c7d914610424578063e7b7a95f14610491578063f3150a32146104e8575b600080fd5b3480156100e157600080fd5b5061010060048036038101908080359060200190929190505050610555565b6040518082815260200191505060405180910390f35b34801561012257600080fd5b50610157600480360381019080803573ffffffffffffffffffffffffffffffffffffffff169060200190929190505050610584565b005b34801561016557600080fd5b5061016e610591565b6040518082815260200191505060405180910390f35b34801561019057600080fd5b506101af60048036038101908080359060200190929190505050610636565b6040518082815260200191505060405180910390f35b3480156101d157600080fd5b50610206600480360381019080803573ffffffffffffffffffffffffffffffffffffffff169060200190929190505050610665565b005b34801561021457600080fd5b50610249600480360381019080803573ffffffffffffffffffffffffffffffffffffffff169060200190929190505050610672565b6040518086815260200185151515158152602001841515151581526020018373ffffffffffffffffffffffffffffffffffffffff1673ffffffffffffffffffffffffffffffffffffffff1681526020018273ffffffffffffffffffffffffffffffffffffffff1673ffffffffffffffffffffffffffffffffffffffff1681526020019550505050505060405180910390f35b3480156102e757600080fd5b5061031c600480360381019080803573ffffffffffffffffffffffffffffffffffffffff169060200190929190505050610702565b604051808481526020018315151515815260200182151515158152602001935050505060405180910390f35b34801561035457600080fd5b5061037d60048036038101908080359060200190929190803590602001909291905050506107f7565b005b34801561038b57600080fd5b50610394610806565b6040518082815260200191505060405180910390f35b3480156103b657600080fd5b506103bf610813565b005b3480156103cd57600080fd5b50610422600480360381019080803573ffffffffffffffffffffffffffffffffffffffff169060200190929190803573ffffffffffffffffffffffffffffffffffffffff16906020019092919050505061081e565b005b34801561043057600080fd5b5061044f6004803603810190808035906020019092919050505061082d565b604051808273ffffffffffffffffffffffffffffffffffffffff1673ffffffffffffffffffffffffffffffffffffffff16815260200191505060405180910390f35b34801561049d57600080fd5b506104a661086b565b604051808273ffffffffffffffffffffffffffffffffffffffff1673ffffffffffffffffffffffffffffffffffffffff16815260200191505060405180910390f35b3480156104f457600080fd5b506105136004803603810190808035906020019092919050505061092d565b604051808273ffffffffffffffffffffffffffffffffffffffff1673ffffffffffffffffffffffffffffffffffffffff16815260200191505060405180910390f35b6000600180018281548110151561056857fe5b9060005260206000209060040201600301600001549050919050565b61058e3382610979565b50565b6000600460003373ffffffffffffffffffffffffffffffffffffffff1673ffffffffffffffffffffffffffffffffffffffff16815260200190815260200160002060010160019054906101000a900460ff1615156105ee57600080fd5b600460003373ffffffffffffffffffffffffffffffffffffffff1673ffffffffffffffffffffffffffffffffffffffff16815260200190815260200160002060000154905090565b6000600180018281548110151561064957fe5b9060005260206000209060040201600201600001549050919050565b61066f3382610b01565b50565b60046020528060005260406000206000915090508060000154908060010160009054906101000a900460ff16908060010160019054906101000a900460ff16908060010160029054906101000a900473ffffffffffffffffffffffffffffffffffffffff16908060020160009054906101000a900473ffffffffffffffffffffffffffffffffffffffff16905085565b6000806000600460008573ffffffffffffffffffffffffffffffffffffffff1673ffffffffffffffffffffffffffffffffffffffff16815260200190815260200160002060000154600460008673ffffffffffffffffffffffffffffffffffffffff1673ffffffffffffffffffffffffffffffffffffffff16815260200190815260200160002060010160019054906101000a900460ff16600460008773ffffffffffffffffffffffffffffffffffffffff1673ffffffffffffffffffffffffffffffffffffffff16815260200190815260200160002060010160009054906101000a900460ff169250925092509193909250565b610802338383610efd565b5050565b6000600160000154905090565b61081c336110d1565b565b6108293383836114d1565b5050565b60008181548110151561083c57fe5b906000526020600020016000915054906101000a900473ffffffffffffffffffffffffffffffffffffffff1681565b6000600460003373ffffffffffffffffffffffffffffffffffffffff1673ffffffffffffffffffffffffffffffffffffffff16815260200190815260200160002060010160019054906101000a900460ff1615156108c857600080fd5b600360003373ffffffffffffffffffffffffffffffffffffffff1673ffffffffffffffffffffffffffffffffffffffff16815260200190815260200160002060009054906101000a900473ffffffffffffffffffffffffffffffffffffffff16905090565b6000600180018281548110151561094057fe5b906000526020600020906004020160010160009054906101000a900473ffffffffffffffffffffffffffffffffffffffff169050919050565b6109816117bb565b600460008473ffffffffffffffffffffffffffffffffffffffff1673ffffffffffffffffffffffffffffffffffffffff16815260200190815260200160002060010160019054906101000a900460ff1615156109dc57600080fd5b60806040519081016040528060016000015481526020018373ffffffffffffffffffffffffffffffffffffffff16815260200160206040519081016040528060008152508152602001602060405190810160405280600081525081525090506001800181908060018154018082558091505090600182039060005260206000209060040201600090919290919091506000820151816000015560208201518160010160006101000a81548173ffffffffffffffffffffffffffffffffffffffff021916908373ffffffffffffffffffffffffffffffffffffffff16021790555060408201518160020160008201518160000155505060608201518160030160008201518160000155505050505060018060000160008282540192505081905550505050565b6000808391508173ffffffffffffffffffffffffffffffffffffffff16600360008473ffffffffffffffffffffffffffffffffffffffff1673ffffffffffffffffffffffffffffffffffffffff16815260200190815260200160002060009054906101000a900473ffffffffffffffffffffffffffffffffffffffff1673ffffffffffffffffffffffffffffffffffffffff16141515610ba057600080fd5b600460008373ffffffffffffffffffffffffffffffffffffffff1673ffffffffffffffffffffffffffffffffffffffff16815260200190815260200160002060010160019054906101000a900460ff161515610bfb57600080fd5b600460008473ffffffffffffffffffffffffffffffffffffffff1673ffffffffffffffffffffffffffffffffffffffff16815260200190815260200160002060010160019054906101000a900460ff161515610c5657600080fd5b82600360008473ffffffffffffffffffffffffffffffffffffffff1673ffffffffffffffffffffffffffffffffffffffff16815260200190815260200160002060006101000a81548173ffffffffffffffffffffffffffffffffffffffff021916908373ffffffffffffffffffffffffffffffffffffffff1602179055508290505b8073ffffffffffffffffffffffffffffffffffffffff16600360008373ffffffffffffffffffffffffffffffffffffffff1673ffffffffffffffffffffffffffffffffffffffff16815260200190815260200160002060009054906101000a900473ffffffffffffffffffffffffffffffffffffffff1673ffffffffffffffffffffffffffffffffffffffff16141515610e6557600460008373ffffffffffffffffffffffffffffffffffffffff1673ffffffffffffffffffffffffffffffffffffffff16815260200190815260200160002060000154600460008373ffffffffffffffffffffffffffffffffffffffff1673ffffffffffffffffffffffffffffffffffffffff16815260200190815260200160002060000160008282540192505081905550600360008273ffffffffffffffffffffffffffffffffffffffff1673ffffffffffffffffffffffffffffffffffffffff16815260200190815260200160002060009054906101000a900473ffffffffffffffffffffffffffffffffffffffff169050610cd8565b600460008373ffffffffffffffffffffffffffffffffffffffff1673ffffffffffffffffffffffffffffffffffffffff16815260200190815260200160002060000154600460008373ffffffffffffffffffffffffffffffffffffffff1673ffffffffffffffffffffffffffffffffffffffff1681526020019081526020016000206000016000828254019250508190555050505050565b6000600460008573ffffffffffffffffffffffffffffffffffffffff1673ffffffffffffffffffffffffffffffffffffffff16815260200190815260200160002060010160019054906101000a900460ff161515610f5a57600080fd5b600460008573ffffffffffffffffffffffffffffffffffffffff1673ffffffffffffffffffffffffffffffffffffffff16815260200190815260200160002060010160009054906101000a900460ff16151515610fb657600080fd5b6001600460008673ffffffffffffffffffffffffffffffffffffffff1673ffffffffffffffffffffffffffffffffffffffff16815260200190815260200160002060010160006101000a81548160ff021916908315150217905550600460008573ffffffffffffffffffffffffffffffffffffffff1673ffffffffffffffffffffffffffffffffffffffff16815260200190815260200160002060000154905060018214156110975780600180018481548110151561107157fe5b9060005260206000209060040201600201600001600082825401925050819055506110cb565b8060018001848154811015156110a957fe5b9060005260206000209060040201600301600001600082825401925050819055505b50505050565b600080829150600460008373ffffffffffffffffffffffffffffffffffffffff1673ffffffffffffffffffffffffffffffffffffffff16815260200190815260200160002060010160019054906101000a900460ff16151561113257600080fd5b8173ffffffffffffffffffffffffffffffffffffffff16600360008473ffffffffffffffffffffffffffffffffffffffff1673ffffffffffffffffffffffffffffffffffffffff16815260200190815260200160002060009054906101000a900473ffffffffffffffffffffffffffffffffffffffff1673ffffffffffffffffffffffffffffffffffffffff16141515156111cc57600080fd5b600360008373ffffffffffffffffffffffffffffffffffffffff1673ffffffffffffffffffffffffffffffffffffffff16815260200190815260200160002060009054906101000a900473ffffffffffffffffffffffffffffffffffffffff1690505b8073ffffffffffffffffffffffffffffffffffffffff16600360008373ffffffffffffffffffffffffffffffffffffffff1673ffffffffffffffffffffffffffffffffffffffff16815260200190815260200160002060009054906101000a900473ffffffffffffffffffffffffffffffffffffffff1673ffffffffffffffffffffffffffffffffffffffff161415156113bc57600460008373ffffffffffffffffffffffffffffffffffffffff1673ffffffffffffffffffffffffffffffffffffffff16815260200190815260200160002060000154600460008373ffffffffffffffffffffffffffffffffffffffff1673ffffffffffffffffffffffffffffffffffffffff16815260200190815260200160002060000160008282540392505081905550600360008273ffffffffffffffffffffffffffffffffffffffff1673ffffffffffffffffffffffffffffffffffffffff16815260200190815260200160002060009054906101000a900473ffffffffffffffffffffffffffffffffffffffff16905061122f565b600460008373ffffffffffffffffffffffffffffffffffffffff1673ffffffffffffffffffffffffffffffffffffffff16815260200190815260200160002060000154600460008373ffffffffffffffffffffffffffffffffffffffff1673ffffffffffffffffffffffffffffffffffffffff1681526020019081526020016000206000016000828254039250508190555081600360008473ffffffffffffffffffffffffffffffffffffffff1673ffffffffffffffffffffffffffffffffffffffff16815260200190815260200160002060006101000a81548173ffffffffffffffffffffffffffffffffffffffff021916908373ffffffffffffffffffffffffffffffffffffffff160217905550505050565b600460008473ffffffffffffffffffffffffffffffffffffffff1673ffffffffffffffffffffffffffffffffffffffff16815260200190815260200160002060010160019054906101000a900460ff1615151561152d57600080fd5b81600460008573ffffffffffffffffffffffffffffffffffffffff1673ffffffffffffffffffffffffffffffffffffffff16815260200190815260200160002060010160026101000a81548173ffffffffffffffffffffffffffffffffffffffff021916908373ffffffffffffffffffffffffffffffffffffffff16021790555080600460008573ffffffffffffffffffffffffffffffffffffffff1673ffffffffffffffffffffffffffffffffffffffff16815260200190815260200160002060020160006101000a81548173ffffffffffffffffffffffffffffffffffffffff021916908373ffffffffffffffffffffffffffffffffffffffff1602179055506001600460008573ffffffffffffffffffffffffffffffffffffffff1673ffffffffffffffffffffffffffffffffffffffff168152602001908152602001600020600001819055506001600460008573ffffffffffffffffffffffffffffffffffffffff1673ffffffffffffffffffffffffffffffffffffffff16815260200190815260200160002060010160016101000a81548160ff02191690831515021790555082600360008573ffffffffffffffffffffffffffffffffffffffff1673ffffffffffffffffffffffffffffffffffffffff16815260200190815260200160002060006101000a81548173ffffffffffffffffffffffffffffffffffffffff021916908373ffffffffffffffffffffffffffffffffffffffff16021790555060008390806001815401808255809150509060018203906000526020600020016000909192909190916101000a81548173ffffffffffffffffffffffffffffffffffffffff021916908373ffffffffffffffffffffffffffffffffffffffff16021790555050505050565b60806040519081016040528060008152602001600073ffffffffffffffffffffffffffffffffffffffff1681526020016117f3611806565b8152602001611800611806565b81525090565b6020604051908101604052806000815250905600a165627a7a7230582082685692ddc192d7999f2660e32810e97a80fb919008b67557caf040b9a2bff30029",
  "source": "pragma solidity 0.4.23;\n\n\ncontract LiquidDemocracy {\n\n    // All the information about ballots is stored here\n    struct BallotData {\n        uint number;\n        Ballot[] ballots;\n    }\n\n    // A ballot that shows options to choose\n    struct Ballot {\n        uint id;\n        address ipfsBallotTitle;\n        BallotOption option1;\n        BallotOption option2;\n    }\n\n    // This is the type for a single option shown in a ballot\n    struct BallotOption {\n        uint voteCount; // number of accumulated votes\n    }\n\n    // This is the type for a single voter metadata\n    struct Voter {\n        uint weight;\n        bool voted;\n        bool registered;\n        address ipfsName;\n        address ipfsEmail;\n    }\n\n    address[] public voters;\n\n    BallotData ballotData;\n\n    mapping(address => address) delegations;\n\n    mapping(address => Voter) public votersData;\n\n    /**\n    * @notice Gets number of ballots created\n    */\n    function getBallotCount() public view returns (uint) {\n        return ballotData.number;\n    }\n    \n    /**\n    * @notice Getter for votersData\n    * @param voter The voter to obtain\n    */\n    function getVoterData(address voter) public view returns (uint, bool, bool) {\n        return (votersData[voter].weight, votersData[voter].registered, votersData[voter].voted);\n    }\n\n    /**\n    * @notice Getter for ballot option vote count for option 1\n    * @param ballotId The desired option to read vote count from\n    */\n    function getBallotVoteOption1Count(uint ballotId) public view returns (uint votes) {\n        return ballotData.ballots[ballotId].option1.voteCount;\n    }\n\n    /**\n    * @notice Getter for ballot option vote count for option 2\n    * @param ballotId The desired option to read vote count from\n    */\n    function getBallotVoteOption2Count(uint ballotId) public view returns (uint votes) {\n        return ballotData.ballots[ballotId].option2.voteCount;\n    }\n\n    /**\n    * @notice Getter for ballot title\n    * @param ballotId The desired option to read vote count from\n    */\n    function getBallotTitle(uint ballotId) public view returns (address ipfsTitle) {\n        return ballotData.ballots[ballotId].ipfsBallotTitle;\n    }\n\n    /**\n    * @notice Gets the weight of the voter that calls this method\n    */\n    function getMyWeight() public view returns (uint) {\n        require(votersData[msg.sender].registered);\n        return votersData[msg.sender].weight;\n    }\n\n    /**\n    * @notice Gets the representative of the voter that calls this method\n    */\n    function getMyRepresentative() public view returns (address) {\n        require(votersData[msg.sender].registered);\n        return delegations[msg.sender];\n    }\n\n    /**\n    * @notice Register a new voter\n    */\n    function registerNewVoter(address ipfsName, address ipfsEmail) external {\n        registerNewVoter(msg.sender, ipfsName, ipfsEmail);\n    }\n\n    /**\n    * @notice Create a new ballot\n    */\n    function createNewBallot(address ipfsTitle) external {\n        createNewBallot(msg.sender, ipfsTitle);\n    }\n\n    /**\n     * @notice Delegate the voting power of a voter to another voter\n     * Only the person calling this function has the power of delegating his/her vote\n     * @param representative voter to delegate the voting power to\n     */\n    function delegate(address representative) external {\n        delegate(msg.sender, representative);\n    }\n\n    /**\n    * @notice Revoke the delegation and voting power already delegated\n    */\n    function revoke() external {\n        revoke(msg.sender);\n    }\n\n    /**\n    * @notice Perform a vote in the ballot\n    * @param voteOption The integer option chosen by voter\n    */\n    function vote(uint ballotId, uint voteOption) external {\n        vote(msg.sender, ballotId, voteOption);\n    }\n\n    /**\n    * @notice Register a new voter setting initial Voter elements\n    */\n    function registerNewVoter(address voterAddress, address ipfsName, address ipfsEmail) private {\n        // Voters already registered cannot register again\n        require(!votersData[voterAddress].registered);\n\n        votersData[voterAddress].ipfsName = ipfsName;\n        votersData[voterAddress].ipfsEmail = ipfsEmail;\n        votersData[voterAddress].weight = 1;\n        votersData[voterAddress].registered = true;\n        delegations[voterAddress] = voterAddress;\n        voters.push(voterAddress);\n    }\n\n    /**\n    * @notice Create a new ballot\n    */\n    function createNewBallot(address from, address ipfsTitle) private {\n        require(votersData[from].registered);\n\n        Ballot memory ballot = Ballot(ballotData.number, ipfsTitle, BallotOption(0), BallotOption(0));\n        ballotData.ballots.push(ballot);\n        ballotData.number += 1;\n    }\n\n    /**\n     * @notice Delegate the voting power of a voter to another voter\n     * @param from voter from which to delegate voting power\n     * @param representative voter to delegate the voting power to\n     */\n    function delegate(address from, address representative) private {\n\n        address representee = from;\n        require(delegations[representee] == representee); // At the moment you can apply a delegation once\n        require(votersData[representee].registered);\n        require(votersData[representative].registered);\n\n        delegations[representee] = representative; // Delegate my own vote\n\n        address nextRepresentative = representative;\n\n        // While there is voter that hasn't performed a delegation to another voter\n        // transitively add weight from their voting power\n        while (delegations[nextRepresentative] != nextRepresentative) {\n            votersData[nextRepresentative].weight += votersData[representee].weight;\n            nextRepresentative = delegations[nextRepresentative];\n        }\n\n        votersData[nextRepresentative].weight += votersData[representee].weight;\n\n    }\n\n    /**\n    * @notice Revoke the delegation and voting power already delegated\n    * @param from revoke delegations on this voter\n    */\n    function revoke(address from) private {\n\n        address representee = from;\n        require(votersData[representee].registered);\n        require(delegations[representee] != representee); // You must have a delegation already\n\n        address nextRepresentative = delegations[representee];\n\n        // While there is voter that hasn't performed a delegation to another voter\n        // transitively remove weight from their voting power\n        while (delegations[nextRepresentative] != nextRepresentative) {\n            votersData[nextRepresentative].weight -= votersData[representee].weight;\n            nextRepresentative = delegations[nextRepresentative];\n        }\n        votersData[nextRepresentative].weight -= votersData[representee].weight;\n        delegations[representee] = representee;\n\n    }\n\n    /**\n    * @notice Record a vote in the ballot\n    * @param voter The address of the voter\n    * @param voteOption The integer option chosen by voter\n    */\n    function vote(address voter, uint ballotId, uint voteOption) private {\n        // Cannot vote more than once and must be registered\n        require(votersData[voter].registered);\n        require(!votersData[voter].voted);\n\n        votersData[voter].voted = true;\n\n        uint weight = votersData[voter].weight;\n        if (voteOption == 1) {\n            ballotData.ballots[ballotId].option1.voteCount += weight;\n        } else {\n            ballotData.ballots[ballotId].option2.voteCount += weight;\n        }\n\n    }\n}\n",
  "sourcePath": "/home/aecc/Medium/blockchain/social-smart-contract/contracts/LiquidDemocracy.sol",
  "compiler": {
    "name": "solc",
    "version": "0.4.23+commit.124ca40d.Emscripten.clang"
  },
  "schemaVersion": "2.0.0",
  "updatedAt": "2018-04-22T00:11:44.601Z"
}