{
  "contractName": "Ballot",
  "abi": [
    {
      "constant": true,
      "inputs": [
        {
          "name": "",
          "type": "uint256"
        }
      ],
      "name": "proposals",
      "outputs": [
        {
          "name": "name",
          "type": "bytes32"
        },
        {
          "name": "voteCount",
          "type": "uint256"
        }
      ],
      "payable": false,
      "stateMutability": "view",
      "type": "function"
    },
    {
      "inputs": [
        {
          "name": "proposalNames",
          "type": "bytes32[]"
        }
      ],
      "payable": false,
      "stateMutability": "nonpayable",
      "type": "constructor"
    },
    {
      "constant": true,
      "inputs": [],
      "name": "getProposalsLength",
      "outputs": [
        {
          "name": "length",
          "type": "uint256"
        }
      ],
      "payable": false,
      "stateMutability": "view",
      "type": "function"
    },
    {
      "constant": true,
      "inputs": [
        {
          "name": "proposal",
          "type": "uint256"
        }
      ],
      "name": "getProposalName",
      "outputs": [
        {
          "name": "name",
          "type": "bytes32"
        }
      ],
      "payable": false,
      "stateMutability": "view",
      "type": "function"
    },
    {
      "constant": true,
      "inputs": [
        {
          "name": "proposal",
          "type": "uint256"
        }
      ],
      "name": "getProposalVoteCount",
      "outputs": [
        {
          "name": "voteCount",
          "type": "uint256"
        }
      ],
      "payable": false,
      "stateMutability": "view",
      "type": "function"
    },
    {
      "constant": false,
      "inputs": [
        {
          "name": "proposal",
          "type": "uint256"
        }
      ],
      "name": "receiveVote",
      "outputs": [
        {
          "name": "successful",
          "type": "bool"
        }
      ],
      "payable": false,
      "stateMutability": "nonpayable",
      "type": "function"
    },
    {
      "constant": true,
      "inputs": [],
      "name": "winningProposal",
      "outputs": [
        {
          "name": "winningProposal",
          "type": "uint256"
        }
      ],
      "payable": false,
      "stateMutability": "view",
      "type": "function"
    },
    {
      "constant": true,
      "inputs": [],
      "name": "winnerName",
      "outputs": [
        {
          "name": "winnerName",
          "type": "bytes32"
        }
      ],
      "payable": false,
      "stateMutability": "view",
      "type": "function"
    }
  ],
  "bytecode": "0x6060604052341561000f57600080fd5b6040516104d73803806104d78339810160405280805182019190505060008090505b81518110156100be576000805480600101828161004e91906100c5565b916000526020600020906002020160006040805190810160405280868681518110151561007757fe5b906020019060200201516000191681526020016000815250909190915060008201518160000190600019169055602082015181600101555050508080600101915050610031565b5050610126565b8154818355818115116100f2576002028160020283600052602060002091820191016100f191906100f7565b5b505050565b61012391905b8082111561011f576000808201600090556001820160009055506002016100fd565b5090565b90565b6103a2806101356000396000f300606060405260043610610083576000357c0100000000000000000000000000000000000000000000000000000000900463ffffffff168063013cf08b146100885780630645b8db146100ce578063429b92bf14610105578063609ff1bd14610144578063b7c6670e1461016d578063bc378a73146101a8578063e2ba53f0146101d1575b600080fd5b341561009357600080fd5b6100a96004808035906020019091905050610202565b6040518083600019166000191681526020018281526020019250505060405180910390f35b34156100d957600080fd5b6100ef6004808035906020019091905050610235565b6040518082815260200191505060405180910390f35b341561011057600080fd5b610126600480803590602001909190505061025e565b60405180826000191660001916815260200191505060405180910390f35b341561014f57600080fd5b610157610287565b6040518082815260200191505060405180910390f35b341561017857600080fd5b61018e6004808035906020019091905050610302565b604051808215151515815260200191505060405180910390f35b34156101b357600080fd5b6101bb61033c565b6040518082815260200191505060405180910390f35b34156101dc57600080fd5b6101e4610348565b60405180826000191660001916815260200191505060405180910390f35b60008181548110151561021157fe5b90600052602060002090600202016000915090508060000154908060010154905082565b6000808281548110151561024557fe5b9060005260206000209060020201600101549050919050565b6000808281548110151561026e57fe5b9060005260206000209060020201600001549050919050565b6000806000809150600090505b6000805490508110156102fd57816000828154811015156102b157fe5b90600052602060002090600202016001015411156102f0576000818154811015156102d857fe5b90600052602060002090600202016001015491508092505b8080600101915050610294565b505090565b6000600160008381548110151561031557fe5b90600052602060002090600202016001016000828254019250508190555060019050919050565b60008080549050905090565b600080610353610287565b81548110151561035f57fe5b9060005260206000209060020201600001549050905600a165627a7a72305820e0d0838f34f668a5e77b3ac5f336f6046b25367a79433c1234c9006bdb6788ff0029",
  "source": "pragma solidity ^0.4.4;\n\n/*\nA Ballot presents options for voters to participate in regarding a specific Issue\n\nThe building blocks for a ballot are: \n- Interface\n- Options\n- Criteria\n*/\n\ncontract Ballot {\n\t// This is the type for a single option shown in a ballot\n\tstruct Proposal {\n        bytes32 name; // short name (up to 32 bytes)\n        uint voteCount; // number of accumulated votes\n    }\n\n\n    // A dynamically-sized array of `Proposal` structs.\n    Proposal[] public proposals;\n\n\n    // Create a new ballot that is populated with proposals\n    function Ballot(bytes32[] proposalNames) {\n\n    \t// For each of the provided proposal names,\n        // create a new proposal object and add it\n        // to the end of the array.\n        for (uint i = 0; i < proposalNames.length; i++) {\n            // WIP \n            // `Proposal({...})` creates a temporary\n            // Proposal object and `proposals.push(...)`\n            // appends it to the end of `proposals`.\n            proposals.push(Proposal({\n                name: proposalNames[i],\n                voteCount: 0\n            }));\n        }\n    }\n\n    function getProposalsLength() public constant returns(uint length) {\n        return proposals.length;\n    }\n\n    function getProposalName(uint proposal) public constant returns (bytes32 name) {\n        return proposals[proposal].name;\n    }\n\n    function getProposalVoteCount(uint proposal) public constant returns (uint voteCount) {\n        return proposals[proposal].voteCount;\n    }\n\n    function receiveVote(uint proposal) public returns (bool successful) {\n        proposals[proposal].voteCount += 1;\n        return true;\n    }\n\n    /// @dev Computes the winning proposal taking all\n    /// previous votes into account.\n    /// TODO: handle drawings\n    function winningProposal() constant\n            returns (uint winningProposal)\n    {\n        uint winningVoteCount = 0;\n        for (uint p = 0; p < proposals.length; p++) {\n            if (proposals[p].voteCount > winningVoteCount) {\n                winningVoteCount = proposals[p].voteCount;\n                winningProposal = p;\n            }\n        }\n    }\n\n    // Calls winningProposal() function to get the index\n    // of the winner contained in the proposals array and then\n    // returns the name of the winner\n    function winnerName() constant\n            returns (bytes32 winnerName)\n    {\n        winnerName = proposals[winningProposal()].name;\n    }\n}\n",
  "sourcePath": "/home/aecc/Medium/blockchain/social-smart-contract/contracts/Ballot.sol",
  "compiler": {
    "name": "solc",
    "version": "0.4.19+commit.c4cbbb05.Emscripten.clang"
  },
  "schemaVersion": "1.0.1",
  "updatedAt": "2018-03-05T21:35:51.197Z"
}