{
  "contractName": "Member",
  "abi": [
    {
      "constant": true,
      "inputs": [],
      "name": "creatorAccountAddress",
      "outputs": [
        {
          "name": "",
          "type": "address"
        }
      ],
      "payable": false,
      "stateMutability": "view",
      "type": "function"
    },
    {
      "constant": true,
      "inputs": [],
      "name": "voted",
      "outputs": [
        {
          "name": "",
          "type": "bool"
        }
      ],
      "payable": false,
      "stateMutability": "view",
      "type": "function"
    },
    {
      "constant": true,
      "inputs": [],
      "name": "weight",
      "outputs": [
        {
          "name": "",
          "type": "uint256"
        }
      ],
      "payable": false,
      "stateMutability": "view",
      "type": "function"
    },
    {
      "inputs": [
        {
          "name": "creatorAccount",
          "type": "address"
        }
      ],
      "payable": false,
      "stateMutability": "nonpayable",
      "type": "constructor"
    },
    {
      "constant": false,
      "inputs": [
        {
          "name": "ballotAddress",
          "type": "address"
        },
        {
          "name": "proposal",
          "type": "uint256"
        }
      ],
      "name": "vote",
      "outputs": [],
      "payable": false,
      "stateMutability": "nonpayable",
      "type": "function"
    }
  ],
  "bytecode": "0x6060604052341561000f57600080fd5b6040516020806102f883398101604052808051906020019091905050806000806101000a81548173ffffffffffffffffffffffffffffffffffffffff021916908373ffffffffffffffffffffffffffffffffffffffff160217905550600180819055506000600260006101000a81548160ff0219169083151502179055505061025b8061009d6000396000f300606060405260043610610062576000357c0100000000000000000000000000000000000000000000000000000000900463ffffffff16806304b6bf0e146100675780633500f91e146100bc5780635f74bbde146100e9578063a1aab33f1461012b575b600080fd5b341561007257600080fd5b61007a610154565b604051808273ffffffffffffffffffffffffffffffffffffffff1673ffffffffffffffffffffffffffffffffffffffff16815260200191505060405180910390f35b34156100c757600080fd5b6100cf610179565b604051808215151515815260200191505060405180910390f35b34156100f457600080fd5b610129600480803573ffffffffffffffffffffffffffffffffffffffff1690602001909190803590602001909190505061018c565b005b341561013657600080fd5b61013e610229565b6040518082815260200191505060405180910390f35b6000809054906101000a900473ffffffffffffffffffffffffffffffffffffffff1681565b600260009054906101000a900460ff1681565b60008290508073ffffffffffffffffffffffffffffffffffffffff1663b7c6670e836000604051602001526040518263ffffffff167c010000000000000000000000000000000000000000000000000000000002815260040180828152602001915050602060405180830381600087803b151561020857600080fd5b6102c65a03f1151561021957600080fd5b5050506040518051905050505050565b600154815600a165627a7a723058202e1058b04c8c86c836aa4be7ffbde74bbf3cc7783752d736173ee2fe5c60962c0029",
  "source": "pragma solidity ^0.4.4;\nimport \"./Ballot.sol\";\n/*\nMembers belong to an Organization.\n\nOnce approved as part of an organization, members gets a specific amount of VOTEs.\n\nMembers are able to:\n- Vote on decisions of the organization\n- Delegate votes to other members\n*/\n\ncontract Member {\n    // Member state variables\n    address public creatorAccountAddress;\n    uint public weight;\n    bool public voted;\n\n    // Constructor \n    function Member(address creatorAccount) {\n        creatorAccountAddress = creatorAccount;\n        weight = 1;\n        voted = false;\n    }\n\n    function vote(address ballotAddress, uint proposal) public {\n        // TODO: require that member hasn't voted before, mark that has voted afterwards\n        Ballot ballot = Ballot(ballotAddress);\n        ballot.receiveVote(proposal);\n\n    }\n    // TODO: delegate VOTEs to another member\n    // TODO: can members belong to many organizations?\n\n}\n",
  "sourcePath": "/home/aecc/Medium/blockchain/social-smart-contract/contracts/Member.sol",
  "compiler": {
    "name": "solc",
    "version": "0.4.19+commit.c4cbbb05.Emscripten.clang"
  },
  "schemaVersion": "1.0.1",
  "updatedAt": "2018-03-05T21:35:51.198Z"
}