{
  "contractName": "Organization",
  "abi": [
    {
      "constant": true,
      "inputs": [
        {
          "name": "",
          "type": "address"
        }
      ],
      "name": "members",
      "outputs": [
        {
          "name": "",
          "type": "bool"
        }
      ],
      "payable": false,
      "stateMutability": "view",
      "type": "function"
    },
    {
      "constant": true,
      "inputs": [],
      "name": "chairperson",
      "outputs": [
        {
          "name": "",
          "type": "address"
        }
      ],
      "payable": false,
      "stateMutability": "view",
      "type": "function"
    },
    {
      "inputs": [
        {
          "name": "firstMember",
          "type": "address"
        }
      ],
      "payable": false,
      "stateMutability": "nonpayable",
      "type": "constructor"
    },
    {
      "constant": false,
      "inputs": [
        {
          "name": "member",
          "type": "address"
        }
      ],
      "name": "addMember",
      "outputs": [],
      "payable": false,
      "stateMutability": "nonpayable",
      "type": "function"
    }
  ],
  "bytecode": "0x6060604052341561000f57600080fd5b6040516020806103368339810160405280805190602001909190505080600160006101000a81548173ffffffffffffffffffffffffffffffffffffffff021916908373ffffffffffffffffffffffffffffffffffffffff16021790555060016000808373ffffffffffffffffffffffffffffffffffffffff1673ffffffffffffffffffffffffffffffffffffffff16815260200190815260200160002060006101000a81548160ff02191690831515021790555050610263806100d36000396000f300606060405260043610610057576000357c0100000000000000000000000000000000000000000000000000000000900463ffffffff16806308ae4b0c1461005c5780632e4176cf146100ad578063ca6d56dc14610102575b600080fd5b341561006757600080fd5b610093600480803573ffffffffffffffffffffffffffffffffffffffff1690602001909190505061013b565b604051808215151515815260200191505060405180910390f35b34156100b857600080fd5b6100c061015b565b604051808273ffffffffffffffffffffffffffffffffffffffff1673ffffffffffffffffffffffffffffffffffffffff16815260200191505060405180910390f35b341561010d57600080fd5b610139600480803573ffffffffffffffffffffffffffffffffffffffff16906020019091905050610181565b005b60006020528060005260406000206000915054906101000a900460ff1681565b600160009054906101000a900473ffffffffffffffffffffffffffffffffffffffff1681565b600160009054906101000a900473ffffffffffffffffffffffffffffffffffffffff1673ffffffffffffffffffffffffffffffffffffffff163373ffffffffffffffffffffffffffffffffffffffff161415156101dd57600080fd5b60016000808373ffffffffffffffffffffffffffffffffffffffff1673ffffffffffffffffffffffffffffffffffffffff16815260200190815260200160002060006101000a81548160ff021916908315150217905550505600a165627a7a72305820c323b8e0bffcd03ddb5969f67cabe2c51921be5fcad0eea5f70c85b45dc01b220029",
  "source": "pragma solidity ^0.4.4;\n\n// import {Member} from \"./Member.sol\";\n\n/*\nSovereign instance.\n\nDefines governance rules, membership approval and allocation of VOTEs.\n\nEvery organization has a constitutional smart contract able to:\n- Determine how VOTEs will be allocated to its members\n- Set memembership approval (relationship: organization has Members)\n- Allow annonymous signatures in Decisions\n- Specify Ballot design\n*/\t\n\ncontract Organization {\n    // Store a boolean of whether a member belongs to organization or not\n    mapping (address => bool) public members;\n\n\t// Organization lead/founder/admin\n\taddress public chairperson;\n\n    // Constructor\n    function Organization(address firstMember) {\n        chairperson = firstMember;\n        members[firstMember] = true;\n    }\n\n    // Membership approval: adds members and gives them\n    // the right to vote\n    function addMember(address member) {\n        require(msg.sender == chairperson);\n        members[member] = true;\n    }\n\n    // TODO: Membership approval (add members to organization)\n\n    // TODO: Allocation of VOTEs to members\n\n    // TODO: Governance rules \n\n}\n",
  "sourcePath": "/home/aecc/Medium/blockchain/social-smart-contract/contracts/Organization.sol",
  "compiler": {
    "name": "solc",
    "version": "0.4.19+commit.c4cbbb05.Emscripten.clang"
  },
  "schemaVersion": "1.0.1",
  "updatedAt": "2018-03-05T21:35:51.198Z"
}